{
  "contractName": "DrugFormulation",
  "abi": [
    {
      "inputs": [
        {
          "internalType": "address",
          "name": "_fdaAddress",
          "type": "address"
        },
        {
          "internalType": "string",
          "name": "_name",
          "type": "string"
        },
        {
          "internalType": "uint16",
          "name": "_lowerTempBound",
          "type": "uint16"
        },
        {
          "internalType": "uint16",
          "name": "_upperTempBound",
          "type": "uint16"
        },
        {
          "components": [
            {
              "internalType": "address",
              "name": "ingAddress",
              "type": "address"
            },
            {
              "internalType": "string",
              "name": "quantityMg",
              "type": "string"
            }
          ],
          "internalType": "struct DrugFormulation.Formula[]",
          "name": "_apiList",
          "type": "tuple[]"
        },
        {
          "components": [
            {
              "internalType": "address",
              "name": "ingAddress",
              "type": "address"
            },
            {
              "internalType": "string",
              "name": "quantityMg",
              "type": "string"
            }
          ],
          "internalType": "struct DrugFormulation.Formula[]",
          "name": "_excipientList",
          "type": "tuple[]"
        }
      ],
      "stateMutability": "nonpayable",
      "type": "constructor"
    },
    {
      "anonymous": false,
      "inputs": [
        {
          "indexed": false,
          "internalType": "address",
          "name": "drugAddress",
          "type": "address"
        },
        {
          "indexed": false,
          "internalType": "string",
          "name": "clinicalDataIpfsHash",
          "type": "string"
        }
      ],
      "name": "ClinicalTrialDataAdded",
      "type": "event"
    },
    {
      "inputs": [
        {
          "internalType": "string",
          "name": "_clinicalDataIpfsHash",
          "type": "string"
        }
      ],
      "name": "addClinicalData",
      "outputs": [],
      "stateMutability": "nonpayable",
      "type": "function"
    },
    {
      "inputs": [],
      "name": "clinicalDataIpfsHash",
      "outputs": [
        {
          "internalType": "string",
          "name": "",
          "type": "string"
        }
      ],
      "stateMutability": "view",
      "type": "function"
    },
    {
      "inputs": [],
      "name": "name",
      "outputs": [
        {
          "internalType": "string",
          "name": "",
          "type": "string"
        }
      ],
      "stateMutability": "view",
      "type": "function"
    },
    {
      "inputs": [
        {
          "internalType": "uint256",
          "name": "",
          "type": "uint256"
        }
      ],
      "name": "temperatureBounds",
      "outputs": [
        {
          "internalType": "uint16",
          "name": "",
          "type": "uint16"
        }
      ],
      "stateMutability": "view",
      "type": "function"
    },
    {
      "inputs": [],
      "name": "isApproved",
      "outputs": [
        {
          "internalType": "bool",
          "name": "",
          "type": "bool"
        }
      ],
      "stateMutability": "view",
      "type": "function"
    }
  ],
  "bytecode": "0x60806040523480156200001157600080fd5b5060405162000f4038038062000f40833981810160405262000037919081019062000500565b85858585836000806101000a81548173ffffffffffffffffffffffffffffffffffffffff021916908373ffffffffffffffffffffffffffffffffffffffff160217905550826001908051906020019062000093929190620001aa565b5060405180604001604052808361ffff1661ffff1681526020018261ffff1661ffff168152506002906002620000cb92919062000231565b5050505050620000e38260046200010260201b60201c565b620000f68160056200010260201b60201c565b5050505050506200073e565b60008090505b8251811015620001a5578281815181106200011f57fe5b6020026020010151602001518260008584815181106200013b57fe5b60200260200101516000015173ffffffffffffffffffffffffffffffffffffffff1673ffffffffffffffffffffffffffffffffffffffff168152602001908152602001600020908051906020019062000196929190620001aa565b50808060010191505062000108565b505050565b828054600181600116156101000203166002900490600052602060002090601f016020900481019282601f10620001ed57805160ff19168380011785556200021e565b828001600101855582156200021e579182015b828111156200021d57825182559160200191906001019062000200565b5b5090506200022d9190620002d5565b5090565b826002600f01601090048101928215620002c25791602002820160005b838211156200029057835183826101000a81548161ffff021916908361ffff16021790555092602001926002016020816001010492830192600103026200024e565b8015620002c05782816101000a81549061ffff021916905560020160208160010104928301926001030262000290565b505b509050620002d19190620002fd565b5090565b620002fa91905b80821115620002f6576000816000905550600101620002dc565b5090565b90565b6200032e91905b808211156200032a57600081816101000a81549061ffff02191690555060010162000304565b5090565b90565b60008151905062000342816200070a565b92915050565b600082601f8301126200035a57600080fd5b8151620003716200036b826200060f565b620005e1565b9150818183526020840193506020810190508360005b83811015620003bb5781518601620003a088826200047d565b84526020840193506020830192505060018101905062000387565b5050505092915050565b600082601f830112620003d757600080fd5b8151620003ee620003e88262000638565b620005e1565b915080825260208301602083018583830111156200040b57600080fd5b62000418838284620006d4565b50505092915050565b600082601f8301126200043357600080fd5b81516200044a620004448262000665565b620005e1565b915080825260208301602083018583830111156200046757600080fd5b62000474838284620006d4565b50505092915050565b6000604082840312156200049057600080fd5b6200049c6040620005e1565b90506000620004ae8482850162000331565b600083015250602082015167ffffffffffffffff811115620004cf57600080fd5b620004dd84828501620003c5565b60208301525092915050565b600081519050620004fa8162000724565b92915050565b60008060008060008060c087890312156200051a57600080fd5b60006200052a89828a0162000331565b965050602087015167ffffffffffffffff8111156200054857600080fd5b6200055689828a0162000421565b95505060406200056989828a01620004e9565b94505060606200057c89828a01620004e9565b935050608087015167ffffffffffffffff8111156200059a57600080fd5b620005a889828a0162000348565b92505060a087015167ffffffffffffffff811115620005c657600080fd5b620005d489828a0162000348565b9150509295509295509295565b6000604051905081810181811067ffffffffffffffff821117156200060557600080fd5b8060405250919050565b600067ffffffffffffffff8211156200062757600080fd5b602082029050602081019050919050565b600067ffffffffffffffff8211156200065057600080fd5b601f19601f8301169050602081019050919050565b600067ffffffffffffffff8211156200067d57600080fd5b601f19601f8301169050602081019050919050565b60006200069f82620006b4565b9050919050565b600061ffff82169050919050565b600073ffffffffffffffffffffffffffffffffffffffff82169050919050565b60005b83811015620006f4578082015181840152602081019050620006d7565b8381111562000704576000848401525b50505050565b620007158162000692565b81146200072157600080fd5b50565b6200072f81620006a6565b81146200073b57600080fd5b50565b6107f2806200074e6000396000f3fe608060405234801561001057600080fd5b50600436106100575760003560e01c806306fdde031461005c578063188823e91461007a57806328f371aa146100aa578063663a9f14146100c857806390f2aca6146100e6575b600080fd5b610064610102565b6040516100719190610628565b60405180910390f35b610094600480360361008f91908101906104fa565b6101a0565b6040516100a1919061064a565b60405180910390f35b6100b26101cb565b6040516100bf919061060d565b60405180910390f35b6100d061027c565b6040516100dd9190610628565b60405180910390f35b61010060048036036100fb91908101906104b9565b61031a565b005b60018054600181600116156101000203166002900480601f0160208091040260200160405190810160405280929190818152602001828054600181600116156101000203166002900480156101985780601f1061016d57610100808354040283529160200191610198565b820191906000526020600020905b81548152906001019060200180831161017b57829003601f168201915b505050505081565b600281600281106101ad57fe5b60109182820401919006600202915054906101000a900461ffff1681565b60008060009054906101000a900473ffffffffffffffffffffffffffffffffffffffff1673ffffffffffffffffffffffffffffffffffffffff16638730dd52306040518263ffffffff1660e01b815260040161022791906105c2565b60206040518083038186803b15801561023f57600080fd5b505afa158015610253573d6000803e3d6000fd5b505050506040513d601f19601f820116820180604052506102779190810190610490565b905090565b60038054600181600116156101000203166002900480601f0160208091040260200160405190810160405280929190818152602001828054600181600116156101000203166002900480156103125780601f106102e757610100808354040283529160200191610312565b820191906000526020600020905b8154815290600101906020018083116102f557829003601f168201915b505050505081565b806003908051906020019061033092919061036d565b507fa9e52b48544a80acb8be09a79bd95f58d0953f12ffba6b17335691fda0f9965630826040516103629291906105dd565b60405180910390a150565b828054600181600116156101000203166002900490600052602060002090601f016020900481019282601f106103ae57805160ff19168380011785556103dc565b828001600101855582156103dc579182015b828111156103db5782518255916020019190600101906103c0565b5b5090506103e991906103ed565b5090565b61040f91905b8082111561040b5760008160009055506001016103f3565b5090565b90565b6000815190506104218161078e565b92915050565b600082601f83011261043857600080fd5b813561044b61044682610692565b610665565b9150808252602083016020830185838301111561046757600080fd5b61047283828461073b565b50505092915050565b60008135905061048a816107a5565b92915050565b6000602082840312156104a257600080fd5b60006104b084828501610412565b91505092915050565b6000602082840312156104cb57600080fd5b600082013567ffffffffffffffff8111156104e557600080fd5b6104f184828501610427565b91505092915050565b60006020828403121561050c57600080fd5b600061051a8482850161047b565b91505092915050565b61052c816106e5565b82525050565b61053b816106f7565b82525050565b600061054c826106c9565b61055681856106d4565b935061056681856020860161074a565b61056f8161077d565b840191505092915050565b6000610585826106be565b61058f81856106d4565b935061059f81856020860161074a565b6105a88161077d565b840191505092915050565b6105bc81610703565b82525050565b60006020820190506105d76000830184610523565b92915050565b60006040820190506105f26000830185610523565b81810360208301526106048184610541565b90509392505050565b60006020820190506106226000830184610532565b92915050565b60006020820190508181036000830152610642818461057a565b905092915050565b600060208201905061065f60008301846105b3565b92915050565b6000604051905081810181811067ffffffffffffffff8211171561068857600080fd5b8060405250919050565b600067ffffffffffffffff8211156106a957600080fd5b601f19601f8301169050602081019050919050565b600081519050919050565b600081519050919050565b600082825260208201905092915050565b60006106f082610711565b9050919050565b60008115159050919050565b600061ffff82169050919050565b600073ffffffffffffffffffffffffffffffffffffffff82169050919050565b6000819050919050565b82818337600083830152505050565b60005b8381101561076857808201518184015260208101905061074d565b83811115610777576000848401525b50505050565b6000601f19601f8301169050919050565b610797816106f7565b81146107a257600080fd5b50565b6107ae81610731565b81146107b957600080fd5b5056fea2646970667358221220880c8cac3268166314972ba362dc14b8c9cc58a1acc08f9064da924e9a843e5964736f6c63430006000033",
  "source": "pragma solidity ^0.6.0;\r\npragma experimental ABIEncoderV2;\r\n\r\nimport {ComponentBase} from \"./ComponentBase.sol\";\r\n\r\ncontract DrugFormulation is ComponentBase {\r\n    constructor(\r\n        address _fdaAddress,\r\n        string memory _name,\r\n        uint16 _lowerTempBound,\r\n        uint16 _upperTempBound,\r\n        Formula[] memory _apiList,\r\n        Formula[] memory _excipientList\r\n    )\r\n        public\r\n        ComponentBase(_fdaAddress, _name, _lowerTempBound, _upperTempBound)\r\n    {\r\n        arrayToMapping(_apiList, apiFormulaMapping);\r\n        arrayToMapping(_excipientList, excipientFormulaMapping);\r\n    }\r\n\r\n    function arrayToMapping(\r\n        Formula[] memory arr,\r\n        mapping(address => string) storage map\r\n    ) private {\r\n        for (uint256 index = 0; index < arr.length; index++) {\r\n            map[arr[index].ingAddress] = arr[index].quantityMg;\r\n        }\r\n    }\r\n\r\n    // Properties\r\n\r\n    struct Formula {\r\n        address ingAddress;\r\n        // Quantity is stored as a string since Solidity does not support floating points.\r\n        string quantityMg;\r\n    }\r\n\r\n    mapping(address => string) apiFormulaMapping;\r\n    mapping(address => string) excipientFormulaMapping;\r\n\r\n    // functions\r\n    function isApproved() public view virtual override returns (bool) {\r\n        return fda.checkDrugFormulationApproval(address(this));\r\n    }\r\n}\r\n",
  "sourcePath": "D:\\pharma-supply-chain\\backend\\contracts\\DrugFormulation.sol",
  "compiler": {
    "name": "solc",
    "version": "0.6.0+commit.26b70077.Emscripten.clang"
  },
  "schemaVersion": "3.4.11",
  "updatedAt": "2023-01-26T07:18:29.927Z",
  "devdoc": {
    "methods": {}
  },
  "userdoc": {
    "methods": {}
  }
}