{
  "contractName": "DrugFormulation",
  "abi": [
    {
      "inputs": [
        {
          "internalType": "address",
          "name": "_fdaAddress",
          "type": "address"
        },
        {
          "internalType": "string",
          "name": "_name",
          "type": "string"
        },
        {
          "internalType": "uint16",
          "name": "_lowerTempBound",
          "type": "uint16"
        },
        {
          "internalType": "uint16",
          "name": "_upperTempBound",
          "type": "uint16"
        },
        {
          "components": [
            {
              "internalType": "address",
              "name": "ingAddress",
              "type": "address"
            },
            {
              "internalType": "string",
              "name": "quantityMg",
              "type": "string"
            }
          ],
          "internalType": "struct DrugFormulation.Formula[]",
          "name": "_apiList",
          "type": "tuple[]"
        },
        {
          "components": [
            {
              "internalType": "address",
              "name": "ingAddress",
              "type": "address"
            },
            {
              "internalType": "string",
              "name": "quantityMg",
              "type": "string"
            }
          ],
          "internalType": "struct DrugFormulation.Formula[]",
          "name": "_excipientList",
          "type": "tuple[]"
        }
      ],
      "stateMutability": "nonpayable",
      "type": "constructor"
    },
    {
      "anonymous": false,
      "inputs": [
        {
          "indexed": false,
          "internalType": "address",
          "name": "drugAddress",
          "type": "address"
        },
        {
          "indexed": false,
          "internalType": "string",
          "name": "clinicalDataIpfsHash",
          "type": "string"
        }
      ],
      "name": "ClinicalTrialDataAdded",
      "type": "event"
    },
    {
      "inputs": [
        {
          "internalType": "string",
          "name": "_clinicalDataIpfsHash",
          "type": "string"
        }
      ],
      "name": "addClinicalData",
      "outputs": [],
      "stateMutability": "nonpayable",
      "type": "function"
    },
    {
      "inputs": [
        {
          "internalType": "address",
          "name": "",
          "type": "address"
        }
      ],
      "name": "apiFormulaMapping",
      "outputs": [
        {
          "internalType": "string",
          "name": "",
          "type": "string"
        }
      ],
      "stateMutability": "view",
      "type": "function"
    },
    {
      "inputs": [],
      "name": "clinicalDataIpfsHash",
      "outputs": [
        {
          "internalType": "string",
          "name": "",
          "type": "string"
        }
      ],
      "stateMutability": "view",
      "type": "function"
    },
    {
      "inputs": [
        {
          "internalType": "address",
          "name": "",
          "type": "address"
        }
      ],
      "name": "excipientFormulaMapping",
      "outputs": [
        {
          "internalType": "string",
          "name": "",
          "type": "string"
        }
      ],
      "stateMutability": "view",
      "type": "function"
    },
    {
      "inputs": [],
      "name": "name",
      "outputs": [
        {
          "internalType": "string",
          "name": "",
          "type": "string"
        }
      ],
      "stateMutability": "view",
      "type": "function"
    },
    {
      "inputs": [
        {
          "internalType": "uint256",
          "name": "",
          "type": "uint256"
        }
      ],
      "name": "temperatureBounds",
      "outputs": [
        {
          "internalType": "uint16",
          "name": "",
          "type": "uint16"
        }
      ],
      "stateMutability": "view",
      "type": "function"
    },
    {
      "inputs": [],
      "name": "isApproved",
      "outputs": [
        {
          "internalType": "bool",
          "name": "",
          "type": "bool"
        }
      ],
      "stateMutability": "view",
      "type": "function"
    }
  ],
  "bytecode": "0x60806040523480156200001157600080fd5b50604051620013be380380620013be8339818101604052620000379190810190620006c3565b85858585836000806101000a81548173ffffffffffffffffffffffffffffffffffffffff021916908373ffffffffffffffffffffffffffffffffffffffff16021790555082600190805190602001906200009392919062000356565b5060405180604001604052808361ffff1661ffff1681526020018261ffff1661ffff168152506002906002620000cb929190620003dd565b5050505050600082511415620000e057600080fd5b600081511415620000f057600080fd5b62000139826040518060400160405280600381526020017f617069000000000000000000000000000000000000000000000000000000000081525060046200018e60201b60201c565b62000182816040518060400160405280600481526020017f657863690000000000000000000000000000000000000000000000000000000081525060056200018e60201b60201c565b50505050505062000981565b60008090505b835181101562000350576040518060400160405280600381526020017f61706900000000000000000000000000000000000000000000000000000000008152508051906020012083805190602001201415620002bd576000809054906101000a900473ffffffffffffffffffffffffffffffffffffffff1673ffffffffffffffffffffffffffffffffffffffff1663a2a5747b8583815181106200023457fe5b6020026020010151600001516040518263ffffffff1660e01b81526004016200025e9190620007e1565b60206040518083038186803b1580156200027757600080fd5b505afa1580156200028c573d6000803e3d6000fd5b505050506040513d601f19601f82011682018060405250620002b29190810190620007a4565b620002bc57600080fd5b5b838181518110620002ca57fe5b602002602001015160200151826000868481518110620002e657fe5b60200260200101516000015173ffffffffffffffffffffffffffffffffffffffff1673ffffffffffffffffffffffffffffffffffffffff16815260200190815260200160002090805190602001906200034192919062000356565b50808060010191505062000194565b50505050565b828054600181600116156101000203166002900490600052602060002090601f016020900481019282601f106200039957805160ff1916838001178555620003ca565b82800160010185558215620003ca579182015b82811115620003c9578251825591602001919060010190620003ac565b5b509050620003d9919062000481565b5090565b826002600f016010900481019282156200046e5791602002820160005b838211156200043c57835183826101000a81548161ffff021916908361ffff1602179055509260200192600201602081600101049283019260010302620003fa565b80156200046c5782816101000a81549061ffff02191690556002016020816001010492830192600103026200043c565b505b5090506200047d9190620004a9565b5090565b620004a691905b80821115620004a257600081600090555060010162000488565b5090565b90565b620004da91905b80821115620004d657600081816101000a81549061ffff021916905550600101620004b0565b5090565b90565b600081519050620004ee8162000933565b92915050565b600082601f8301126200050657600080fd5b81516200051d62000517826200082c565b620007fe565b9150818183526020840193506020810190508360005b838110156200056757815186016200054c888262000640565b84526020840193506020830192505060018101905062000533565b5050505092915050565b60008151905062000582816200094d565b92915050565b600082601f8301126200059a57600080fd5b8151620005b1620005ab8262000855565b620007fe565b91508082526020830160208301858383011115620005ce57600080fd5b620005db838284620008fd565b50505092915050565b600082601f830112620005f657600080fd5b81516200060d620006078262000882565b620007fe565b915080825260208301602083018583830111156200062a57600080fd5b62000637838284620008fd565b50505092915050565b6000604082840312156200065357600080fd5b6200065f6040620007fe565b905060006200067184828501620004dd565b600083015250602082015167ffffffffffffffff8111156200069257600080fd5b620006a08482850162000588565b60208301525092915050565b600081519050620006bd8162000967565b92915050565b60008060008060008060c08789031215620006dd57600080fd5b6000620006ed89828a01620004dd565b965050602087015167ffffffffffffffff8111156200070b57600080fd5b6200071989828a01620005e4565b95505060406200072c89828a01620006ac565b94505060606200073f89828a01620006ac565b935050608087015167ffffffffffffffff8111156200075d57600080fd5b6200076b89828a01620004f4565b92505060a087015167ffffffffffffffff8111156200078957600080fd5b6200079789828a01620004f4565b9150509295509295509295565b600060208284031215620007b757600080fd5b6000620007c78482850162000571565b91505092915050565b620007db81620008af565b82525050565b6000602082019050620007f86000830184620007d0565b92915050565b6000604051905081810181811067ffffffffffffffff821117156200082257600080fd5b8060405250919050565b600067ffffffffffffffff8211156200084457600080fd5b602082029050602081019050919050565b600067ffffffffffffffff8211156200086d57600080fd5b601f19601f8301169050602081019050919050565b600067ffffffffffffffff8211156200089a57600080fd5b601f19601f8301169050602081019050919050565b6000620008bc82620008dd565b9050919050565b60008115159050919050565b600061ffff82169050919050565b600073ffffffffffffffffffffffffffffffffffffffff82169050919050565b60005b838110156200091d57808201518184015260208101905062000900565b838111156200092d576000848401525b50505050565b6200093e81620008af565b81146200094a57600080fd5b50565b6200095881620008c3565b81146200096457600080fd5b50565b6200097281620008cf565b81146200097e57600080fd5b50565b610a2d80620009916000396000f3fe608060405234801561001057600080fd5b506004361061007d5760003560e01c806328f371aa1161005b57806328f371aa14610100578063663a9f141461011e57806390f2aca61461013c578063b384687e146101585761007d565b806306fdde0314610082578063188823e9146100a0578063225a8e27146100d0575b600080fd5b61008a610188565b604051610097919061084c565b60405180910390f35b6100ba60048036036100b5919081019061071e565b610226565b6040516100c7919061086e565b60405180910390f35b6100ea60048036036100e5919081019061068b565b610251565b6040516100f7919061084c565b60405180910390f35b610108610301565b6040516101159190610831565b60405180910390f35b6101266103b2565b604051610133919061084c565b60405180910390f35b610156600480360361015191908101906106dd565b610450565b005b610172600480360361016d919081019061068b565b6104a3565b60405161017f919061084c565b60405180910390f35b60018054600181600116156101000203166002900480601f01602080910402602001604051908101604052809291908181526020018280546001816001161561010002031660029004801561021e5780601f106101f35761010080835404028352916020019161021e565b820191906000526020600020905b81548152906001019060200180831161020157829003601f168201915b505050505081565b6002816002811061023357fe5b60109182820401919006600202915054906101000a900461ffff1681565b60056020528060005260406000206000915090508054600181600116156101000203166002900480601f0160208091040260200160405190810160405280929190818152602001828054600181600116156101000203166002900480156102f95780601f106102ce576101008083540402835291602001916102f9565b820191906000526020600020905b8154815290600101906020018083116102dc57829003601f168201915b505050505081565b60008060009054906101000a900473ffffffffffffffffffffffffffffffffffffffff1673ffffffffffffffffffffffffffffffffffffffff16638730dd52306040518263ffffffff1660e01b815260040161035d91906107e6565b60206040518083038186803b15801561037557600080fd5b505afa158015610389573d6000803e3d6000fd5b505050506040513d601f19601f820116820180604052506103ad91908101906106b4565b905090565b60038054600181600116156101000203166002900480601f0160208091040260200160405190810160405280929190818152602001828054600181600116156101000203166002900480156104485780601f1061041d57610100808354040283529160200191610448565b820191906000526020600020905b81548152906001019060200180831161042b57829003601f168201915b505050505081565b8060039080519060200190610466929190610553565b507fa9e52b48544a80acb8be09a79bd95f58d0953f12ffba6b17335691fda0f996563082604051610498929190610801565b60405180910390a150565b60046020528060005260406000206000915090508054600181600116156101000203166002900480601f01602080910402602001604051908101604052809291908181526020018280546001816001161561010002031660029004801561054b5780601f106105205761010080835404028352916020019161054b565b820191906000526020600020905b81548152906001019060200180831161052e57829003601f168201915b505050505081565b828054600181600116156101000203166002900490600052602060002090601f016020900481019282601f1061059457805160ff19168380011785556105c2565b828001600101855582156105c2579182015b828111156105c15782518255916020019190600101906105a6565b5b5090506105cf91906105d3565b5090565b6105f591905b808211156105f15760008160009055506001016105d9565b5090565b90565b600081359050610607816109b2565b92915050565b60008151905061061c816109c9565b92915050565b600082601f83011261063357600080fd5b8135610646610641826108b6565b610889565b9150808252602083016020830185838301111561066257600080fd5b61066d83828461095f565b50505092915050565b600081359050610685816109e0565b92915050565b60006020828403121561069d57600080fd5b60006106ab848285016105f8565b91505092915050565b6000602082840312156106c657600080fd5b60006106d48482850161060d565b91505092915050565b6000602082840312156106ef57600080fd5b600082013567ffffffffffffffff81111561070957600080fd5b61071584828501610622565b91505092915050565b60006020828403121561073057600080fd5b600061073e84828501610676565b91505092915050565b61075081610909565b82525050565b61075f8161091b565b82525050565b6000610770826108ed565b61077a81856108f8565b935061078a81856020860161096e565b610793816109a1565b840191505092915050565b60006107a9826108e2565b6107b381856108f8565b93506107c381856020860161096e565b6107cc816109a1565b840191505092915050565b6107e081610927565b82525050565b60006020820190506107fb6000830184610747565b92915050565b60006040820190506108166000830185610747565b81810360208301526108288184610765565b90509392505050565b60006020820190506108466000830184610756565b92915050565b60006020820190508181036000830152610866818461079e565b905092915050565b600060208201905061088360008301846107d7565b92915050565b6000604051905081810181811067ffffffffffffffff821117156108ac57600080fd5b8060405250919050565b600067ffffffffffffffff8211156108cd57600080fd5b601f19601f8301169050602081019050919050565b600081519050919050565b600081519050919050565b600082825260208201905092915050565b600061091482610935565b9050919050565b60008115159050919050565b600061ffff82169050919050565b600073ffffffffffffffffffffffffffffffffffffffff82169050919050565b6000819050919050565b82818337600083830152505050565b60005b8381101561098c578082015181840152602081019050610971565b8381111561099b576000848401525b50505050565b6000601f19601f8301169050919050565b6109bb81610909565b81146109c657600080fd5b50565b6109d28161091b565b81146109dd57600080fd5b50565b6109e981610955565b81146109f457600080fd5b5056fea26469706673582212207b11a37532651658d4a7d87c2485c2d32d1b9b7672e1a4c55ce40111515c2a0564736f6c63430006000033",
  "source": "pragma solidity ^0.6.0;\r\npragma experimental ABIEncoderV2;\r\n\r\nimport {ComponentBase} from \"./ComponentBase.sol\";\r\n\r\ncontract DrugFormulation is ComponentBase {\r\n    constructor(\r\n        address _fdaAddress,\r\n        string memory _name,\r\n        uint16 _lowerTempBound,\r\n        uint16 _upperTempBound,\r\n        Formula[] memory _apiList,\r\n        Formula[] memory _excipientList\r\n    )\r\n        public\r\n        ComponentBase(_fdaAddress, _name, _lowerTempBound, _upperTempBound)\r\n    {\r\n        require(_apiList.length != 0);\r\n        require(_excipientList.length != 0);\r\n        arrayToMapping(_apiList, \"api\", apiFormulaMapping);\r\n        arrayToMapping(_excipientList, \"exci\", excipientFormulaMapping);\r\n    }\r\n\r\n    function arrayToMapping(\r\n        Formula[] memory arr,\r\n        string memory componentType,\r\n        mapping(address => string) storage map\r\n    ) private {\r\n        for (uint256 index = 0; index < arr.length; index++) {\r\n            if (keccak256(bytes(componentType)) == keccak256(bytes(\"api\"))) {\r\n                require(fda.checkApiApproval(arr[index].ingAddress));\r\n            }\r\n            map[arr[index].ingAddress] = arr[index].quantityMg;\r\n        }\r\n    }\r\n\r\n    // Properties\r\n\r\n    struct Formula {\r\n        address ingAddress;\r\n        // Quantity is stored as a string since Solidity does not support floating points.\r\n        string quantityMg;\r\n    }\r\n\r\n    mapping(address => string) public apiFormulaMapping;\r\n    mapping(address => string) public excipientFormulaMapping;\r\n\r\n    // functions\r\n    function isApproved() public view virtual override returns (bool) {\r\n        return fda.checkDrugFormulationApproval(address(this));\r\n    }\r\n}\r\n",
  "sourcePath": "D:\\pharma-supply-chain\\backend\\contracts\\DrugFormulation.sol",
  "compiler": {
    "name": "solc",
    "version": "0.6.0+commit.26b70077.Emscripten.clang"
  },
  "schemaVersion": "3.4.11",
  "updatedAt": "2023-02-02T03:18:46.616Z",
  "devdoc": {
    "methods": {}
  },
  "userdoc": {
    "methods": {}
  }
}