{
  "contractName": "DrugLot",
  "abi": [
    {
      "inputs": [
        {
          "internalType": "address",
          "name": "_fdaAddress",
          "type": "address"
        },
        {
          "internalType": "address",
          "name": "_drugFormulationAddress",
          "type": "address"
        }
      ],
      "stateMutability": "nonpayable",
      "type": "constructor"
    },
    {
      "anonymous": false,
      "inputs": [
        {
          "indexed": false,
          "internalType": "uint256",
          "name": "soldBoxes",
          "type": "uint256"
        },
        {
          "indexed": false,
          "internalType": "address",
          "name": "newownerID",
          "type": "address"
        }
      ],
      "name": "boxesSold",
      "type": "event"
    },
    {
      "anonymous": false,
      "inputs": [
        {
          "indexed": true,
          "internalType": "address",
          "name": "manufacturer",
          "type": "address"
        },
        {
          "indexed": false,
          "internalType": "uint32",
          "name": "numBoxes",
          "type": "uint32"
        },
        {
          "indexed": false,
          "internalType": "uint128",
          "name": "lotPrice",
          "type": "uint128"
        },
        {
          "indexed": false,
          "internalType": "uint128",
          "name": "boxPrice",
          "type": "uint128"
        },
        {
          "indexed": false,
          "internalType": "uint256",
          "name": "manufacturingDate",
          "type": "uint256"
        }
      ],
      "name": "lotManufactured",
      "type": "event"
    },
    {
      "anonymous": false,
      "inputs": [
        {
          "indexed": false,
          "internalType": "address",
          "name": "manufacturer",
          "type": "address"
        },
        {
          "indexed": false,
          "internalType": "uint32",
          "name": "lotName",
          "type": "uint32"
        },
        {
          "indexed": false,
          "internalType": "uint32",
          "name": "numBoxes",
          "type": "uint32"
        }
      ],
      "name": "lotManufacturingStarted",
      "type": "event"
    },
    {
      "anonymous": false,
      "inputs": [
        {
          "indexed": true,
          "internalType": "address",
          "name": "seller",
          "type": "address"
        },
        {
          "indexed": false,
          "internalType": "string",
          "name": "lotName",
          "type": "string"
        },
        {
          "indexed": false,
          "internalType": "uint32",
          "name": "numBoxes",
          "type": "uint32"
        },
        {
          "indexed": false,
          "internalType": "uint256",
          "name": "lotPrice",
          "type": "uint256"
        },
        {
          "indexed": false,
          "internalType": "uint128",
          "name": "boxPrice",
          "type": "uint128"
        }
      ],
      "name": "lotOpenForSale",
      "type": "event"
    },
    {
      "anonymous": false,
      "inputs": [
        {
          "indexed": true,
          "internalType": "address",
          "name": "newOwnerId",
          "type": "address"
        }
      ],
      "name": "lotSold",
      "type": "event"
    },
    {
      "inputs": [
        {
          "internalType": "uint256",
          "name": "",
          "type": "uint256"
        }
      ],
      "name": "authorizedDistributors",
      "outputs": [
        {
          "internalType": "address",
          "name": "",
          "type": "address"
        }
      ],
      "stateMutability": "view",
      "type": "function"
    },
    {
      "inputs": [
        {
          "internalType": "uint256",
          "name": "",
          "type": "uint256"
        }
      ],
      "name": "authorizedManufacturers",
      "outputs": [
        {
          "internalType": "address",
          "name": "",
          "type": "address"
        }
      ],
      "stateMutability": "view",
      "type": "function"
    },
    {
      "inputs": [
        {
          "internalType": "uint256",
          "name": "",
          "type": "uint256"
        }
      ],
      "name": "authorizedPharmacies",
      "outputs": [
        {
          "internalType": "address",
          "name": "",
          "type": "address"
        }
      ],
      "stateMutability": "view",
      "type": "function"
    },
    {
      "inputs": [],
      "name": "boxPrice",
      "outputs": [
        {
          "internalType": "uint128",
          "name": "",
          "type": "uint128"
        }
      ],
      "stateMutability": "view",
      "type": "function"
    },
    {
      "inputs": [
        {
          "internalType": "address",
          "name": "",
          "type": "address"
        }
      ],
      "name": "boxesPatient",
      "outputs": [
        {
          "internalType": "uint256",
          "name": "",
          "type": "uint256"
        }
      ],
      "stateMutability": "view",
      "type": "function"
    },
    {
      "inputs": [],
      "name": "drugFormulation",
      "outputs": [
        {
          "internalType": "contract DrugFormulation",
          "name": "",
          "type": "address"
        }
      ],
      "stateMutability": "view",
      "type": "function"
    },
    {
      "inputs": [],
      "name": "expiryDate",
      "outputs": [
        {
          "internalType": "uint256",
          "name": "",
          "type": "uint256"
        }
      ],
      "stateMutability": "view",
      "type": "function"
    },
    {
      "inputs": [],
      "name": "lotName",
      "outputs": [
        {
          "internalType": "string",
          "name": "",
          "type": "string"
        }
      ],
      "stateMutability": "view",
      "type": "function"
    },
    {
      "inputs": [],
      "name": "lotPrice",
      "outputs": [
        {
          "internalType": "uint128",
          "name": "",
          "type": "uint128"
        }
      ],
      "stateMutability": "view",
      "type": "function"
    },
    {
      "inputs": [],
      "name": "manufacturingDate",
      "outputs": [
        {
          "internalType": "uint256",
          "name": "",
          "type": "uint256"
        }
      ],
      "stateMutability": "view",
      "type": "function"
    },
    {
      "inputs": [],
      "name": "manufacturingStatus",
      "outputs": [
        {
          "internalType": "enum DrugLot.ManufacturingStatus",
          "name": "",
          "type": "uint8"
        }
      ],
      "stateMutability": "view",
      "type": "function"
    },
    {
      "inputs": [],
      "name": "numBoxes",
      "outputs": [
        {
          "internalType": "uint32",
          "name": "",
          "type": "uint32"
        }
      ],
      "stateMutability": "view",
      "type": "function"
    },
    {
      "inputs": [],
      "name": "ownerId",
      "outputs": [
        {
          "internalType": "address payable",
          "name": "",
          "type": "address"
        }
      ],
      "stateMutability": "view",
      "type": "function"
    },
    {
      "inputs": [
        {
          "internalType": "uint256",
          "name": "",
          "type": "uint256"
        }
      ],
      "name": "temperatureListings",
      "outputs": [
        {
          "internalType": "uint16",
          "name": "",
          "type": "uint16"
        }
      ],
      "stateMutability": "view",
      "type": "function"
    },
    {
      "inputs": [
        {
          "internalType": "string",
          "name": "_lotName",
          "type": "string"
        },
        {
          "internalType": "uint32",
          "name": "_numBoxes",
          "type": "uint32"
        },
        {
          "internalType": "uint128",
          "name": "_lotPrice",
          "type": "uint128"
        },
        {
          "internalType": "uint128",
          "name": "_boxPrice",
          "type": "uint128"
        }
      ],
      "name": "startManufacturing",
      "outputs": [],
      "stateMutability": "nonpayable",
      "type": "function"
    },
    {
      "inputs": [
        {
          "internalType": "uint256",
          "name": "_manufacturingDate",
          "type": "uint256"
        },
        {
          "internalType": "uint256",
          "name": "_expiryDate",
          "type": "uint256"
        }
      ],
      "name": "completeManufacturing",
      "outputs": [],
      "stateMutability": "nonpayable",
      "type": "function"
    },
    {
      "inputs": [],
      "name": "grantSale",
      "outputs": [],
      "stateMutability": "nonpayable",
      "type": "function"
    },
    {
      "inputs": [],
      "name": "buyLot",
      "outputs": [],
      "stateMutability": "payable",
      "type": "function"
    },
    {
      "inputs": [
        {
          "internalType": "uint32",
          "name": "_numBoxesToBuy",
          "type": "uint32"
        }
      ],
      "name": "buyBox",
      "outputs": [],
      "stateMutability": "payable",
      "type": "function"
    },
    {
      "inputs": [],
      "name": "viewLot",
      "outputs": [
        {
          "internalType": "string",
          "name": "_lotName",
          "type": "string"
        },
        {
          "internalType": "uint256",
          "name": "_lotPrice",
          "type": "uint256"
        },
        {
          "internalType": "uint256",
          "name": "_numBoxes",
          "type": "uint256"
        },
        {
          "internalType": "uint256",
          "name": "_boxPrice",
          "type": "uint256"
        },
        {
          "internalType": "uint256",
          "name": "_manufacturingDate",
          "type": "uint256"
        },
        {
          "internalType": "uint256",
          "name": "_expiryDate",
          "type": "uint256"
        },
        {
          "internalType": "address",
          "name": "_ownerId",
          "type": "address"
        }
      ],
      "stateMutability": "view",
      "type": "function"
    }
  ],
  "bytecode": "0x60806040523480156200001157600080fd5b50604051620022e7380380620022e78339818101604052620000379190810190620000d8565b81600960006101000a81548173ffffffffffffffffffffffffffffffffffffffff021916908373ffffffffffffffffffffffffffffffffffffffff16021790555080600860006101000a81548173ffffffffffffffffffffffffffffffffffffffff021916908373ffffffffffffffffffffffffffffffffffffffff160217905550505062000167565b600081519050620000d2816200014d565b92915050565b60008060408385031215620000ec57600080fd5b6000620000fc85828601620000c1565b92505060206200010f85828601620000c1565b9150509250929050565b600062000126826200012d565b9050919050565b600073ffffffffffffffffffffffffffffffffffffffff82169050919050565b620001588162000119565b81146200016457600080fd5b50565b61217080620001776000396000f3fe60806040526004361061011f5760003560e01c80636f896e1e116100a0578063a7ba92d911610064578063a7ba92d9146103c0578063ba9090fc146103eb578063cd37e95814610428578063f8fe25bc14610453578063ffa66f971461046f5761011f565b80636f896e1e146102bf5780637636ce69146102f05780637938100b1461031b5780639749026414610358578063a6482858146103955761011f565b8063284106f8116100e7578063284106f81461020b5780632ad5778b1461023657806346b352e01461024d578063516dde431461028a57806366d95364146102b55761011f565b8063019c08f514610124578063100f33d31461014f57806316d8bd271461017a57806321f3529b146101b7578063271181ec146101e0575b600080fd5b34801561013057600080fd5b50610139610498565b6040516101469190611b6c565b60405180910390f35b34801561015b57600080fd5b506101646104bd565b6040516101719190611ba2565b60405180910390f35b34801561018657600080fd5b506101a1600480360361019c91908101906115ad565b6104d0565b6040516101ae9190611b51565b60405180910390f35b3480156101c357600080fd5b506101de60048036036101d99190810190611532565b61050c565b005b3480156101ec57600080fd5b506101f5610730565b6040516102029190611dc1565b60405180910390f35b34801561021757600080fd5b50610220610752565b60405161022d9190611df7565b60405180910390f35b34801561024257600080fd5b5061024b610758565b005b34801561025957600080fd5b50610274600480360361026f91908101906115ad565b610914565b6040516102819190611b51565b60405180910390f35b34801561029657600080fd5b5061029f610950565b6040516102ac9190611df7565b60405180910390f35b6102bd610956565b005b3480156102cb57600080fd5b506102d4610bc5565b6040516102e79796959493929190611bdf565b60405180910390f35b3480156102fc57600080fd5b50610305610d34565b6040516103129190611b87565b60405180910390f35b34801561032757600080fd5b50610342600480360361033d91908101906115ad565b610d5a565b60405161034f9190611ddc565b60405180910390f35b34801561036457600080fd5b5061037f600480360361037a91908101906114e0565b610d8f565b60405161038c9190611df7565b60405180910390f35b3480156103a157600080fd5b506103aa610da7565b6040516103b79190611dc1565b60405180910390f35b3480156103cc57600080fd5b506103d5610dc9565b6040516103e29190611e12565b60405180910390f35b3480156103f757600080fd5b50610412600480360361040d91908101906115ad565b610ddf565b60405161041f9190611b51565b60405180910390f35b34801561043457600080fd5b5061043d610e1b565b60405161044a9190611bbd565b60405180910390f35b61046d60048036036104689190810190611612565b610eb9565b005b34801561047b57600080fd5b50610496600480360361049191908101906115d6565b6111af565b005b6000809054906101000a900473ffffffffffffffffffffffffffffffffffffffff1681565b600660009054906101000a900460ff1681565b600c81815481106104dd57fe5b906000526020600020016000915054906101000a900473ffffffffffffffffffffffffffffffffffffffff1681565b6000600281111561051957fe5b600660009054906101000a900460ff16600281111561053457fe5b14610574576040517f08c379a000000000000000000000000000000000000000000000000000000000815260040161056b90611ce1565b60405180910390fd5b600960009054906101000a900473ffffffffffffffffffffffffffffffffffffffff1673ffffffffffffffffffffffffffffffffffffffff16638730dd52600860009054906101000a900473ffffffffffffffffffffffffffffffffffffffff166040518263ffffffff1660e01b81526004016105f19190611b51565b60206040518083038186803b15801561060957600080fd5b505afa15801561061d573d6000803e3d6000fd5b505050506040513d601f19601f820116820180604052506106419190810190611509565b610680576040517f08c379a000000000000000000000000000000000000000000000000000000000815260040161067790611ca1565b60405180910390fd5b836001908051906020019061069692919061137e565b5082600260006101000a81548163ffffffff021916908363ffffffff16021790555081600260046101000a8154816fffffffffffffffffffffffffffffffff02191690836fffffffffffffffffffffffffffffffff16021790555080600360006101000a8154816fffffffffffffffffffffffffffffffff02191690836fffffffffffffffffffffffffffffffff16021790555050505050565b600260049054906101000a90046fffffffffffffffffffffffffffffffff1681565b60045481565b6000809054906101000a900473ffffffffffffffffffffffffffffffffffffffff1673ffffffffffffffffffffffffffffffffffffffff163373ffffffffffffffffffffffffffffffffffffffff16146107e7576040517f08c379a00000000000000000000000000000000000000000000000000000000081526004016107de90611d21565b60405180910390fd5b6002808111156107f357fe5b600660009054906101000a900460ff16600281111561080e57fe5b1461084e576040517f08c379a000000000000000000000000000000000000000000000000000000000815260040161084590611da1565b60405180910390fd5b6000809054906101000a900473ffffffffffffffffffffffffffffffffffffffff1673ffffffffffffffffffffffffffffffffffffffff167f6dec1ee244579a1e5f273c41d38652ef36ad96cc7966c4838f6adff6e4e0320d6001600260009054906101000a900463ffffffff16600260049054906101000a90046fffffffffffffffffffffffffffffffff16600360009054906101000a90046fffffffffffffffffffffffffffffffff1660405161090a9493929190611c55565b60405180910390a2565b600b818154811061092157fe5b906000526020600020016000915054906101000a900473ffffffffffffffffffffffffffffffffffffffff1681565b60055481565b60003390506000809054906101000a900473ffffffffffffffffffffffffffffffffffffffff1673ffffffffffffffffffffffffffffffffffffffff168173ffffffffffffffffffffffffffffffffffffffff1614156109eb576040517f08c379a00000000000000000000000000000000000000000000000000000000081526004016109e290611cc1565b60405180910390fd5b600260049054906101000a90046fffffffffffffffffffffffffffffffff166fffffffffffffffffffffffffffffffff16341015610a5e576040517f08c379a0000000000000000000000000000000000000000000000000000000008152600401610a5590611d61565b60405180910390fd5b6000600260049054906101000a90046fffffffffffffffffffffffffffffffff166fffffffffffffffffffffffffffffffff16340390506000811115610ae6578173ffffffffffffffffffffffffffffffffffffffff166108fc829081150290604051600060405180830381858888f19350505050158015610ae4573d6000803e3d6000fd5b505b6000809054906101000a900473ffffffffffffffffffffffffffffffffffffffff1673ffffffffffffffffffffffffffffffffffffffff166108fc600260049054906101000a90046fffffffffffffffffffffffffffffffff166fffffffffffffffffffffffffffffffff169081150290604051600060405180830381858888f19350505050158015610b7d573d6000803e3d6000fd5b508173ffffffffffffffffffffffffffffffffffffffff167feb373dc4c684e4ae6135618e7fc15d654b409d8071dc8126b4a5d18ac86590db60405160405180910390a25050565b60606000806000806000806001600260049054906101000a90046fffffffffffffffffffffffffffffffff16600260009054906101000a900463ffffffff16600360009054906101000a90046fffffffffffffffffffffffffffffffff166004546005546000809054906101000a900473ffffffffffffffffffffffffffffffffffffffff16868054600181600116156101000203166002900480601f016020809104026020016040519081016040528092919081815260200182805460018160011615610100020316600290048015610ce05780601f10610cb557610100808354040283529160200191610ce0565b820191906000526020600020905b815481529060010190602001808311610cc357829003601f168201915b50505050509650856fffffffffffffffffffffffffffffffff1695508463ffffffff169450836fffffffffffffffffffffffffffffffff169350809050965096509650965096509650965090919293949596565b600860009054906101000a900473ffffffffffffffffffffffffffffffffffffffff1681565b600a8181548110610d6757fe5b9060005260206000209060109182820401919006600202915054906101000a900461ffff1681565b60076020528060005260406000206000915090505481565b600360009054906101000a90046fffffffffffffffffffffffffffffffff1681565b600260009054906101000a900463ffffffff1681565b600d8181548110610dec57fe5b906000526020600020016000915054906101000a900473ffffffffffffffffffffffffffffffffffffffff1681565b60018054600181600116156101000203166002900480601f016020809104026020016040519081016040528092919081815260200182805460018160011615610100020316600290048015610eb15780601f10610e8657610100808354040283529160200191610eb1565b820191906000526020600020905b815481529060010190602001808311610e9457829003601f168201915b505050505081565b600033905060008060009054906101000a900473ffffffffffffffffffffffffffffffffffffffff169050600260009054906101000a900463ffffffff1663ffffffff168363ffffffff161115610f45576040517f08c379a0000000000000000000000000000000000000000000000000000000008152600401610f3c90611d01565b60405180910390fd5b8263ffffffff16600360009054906101000a90046fffffffffffffffffffffffffffffffff16026fffffffffffffffffffffffffffffffff16341015610fc0576040517f08c379a0000000000000000000000000000000000000000000000000000000008152600401610fb790611d41565b60405180910390fd5b60008363ffffffff16600360009054906101000a90046fffffffffffffffffffffffffffffffff16026fffffffffffffffffffffffffffffffff16340390506000811115611050573373ffffffffffffffffffffffffffffffffffffffff166108fc829081150290604051600060405180830381858888f1935050505015801561104e573d6000803e3d6000fd5b505b8173ffffffffffffffffffffffffffffffffffffffff166108fc8563ffffffff16600360009054906101000a90046fffffffffffffffffffffffffffffffff16026fffffffffffffffffffffffffffffffff169081150290604051600060405180830381858888f193505050501580156110ce573d6000803e3d6000fd5b508363ffffffff16600760008573ffffffffffffffffffffffffffffffffffffffff1673ffffffffffffffffffffffffffffffffffffffff1681526020019081526020016000208190555083600260008282829054906101000a900463ffffffff160392506101000a81548163ffffffff021916908363ffffffff1602179055507f82c28ddbad097bd1003a55cdb6788f38fbe3033fa91c813a8a00652716c0d45b846000809054906101000a900473ffffffffffffffffffffffffffffffffffffffff166040516111a1929190611e2d565b60405180910390a150505050565b6000809054906101000a900473ffffffffffffffffffffffffffffffffffffffff1673ffffffffffffffffffffffffffffffffffffffff163373ffffffffffffffffffffffffffffffffffffffff161461123e576040517f08c379a000000000000000000000000000000000000000000000000000000000815260040161123590611d21565b60405180910390fd5b6001600281111561124b57fe5b600660009054906101000a900460ff16600281111561126657fe5b146112a6576040517f08c379a000000000000000000000000000000000000000000000000000000000815260040161129d90611d81565b60405180910390fd5b81600481905550806005819055506002600660006101000a81548160ff021916908360028111156112d357fe5b02179055503373ffffffffffffffffffffffffffffffffffffffff167f162bfb442173cf078990cf0486f301337045d5d45f7d2df6341752439aae24be600260009054906101000a900463ffffffff16600260049054906101000a90046fffffffffffffffffffffffffffffffff16600360009054906101000a90046fffffffffffffffffffffffffffffffff16866040516113729493929190611e56565b60405180910390a25050565b828054600181600116156101000203166002900490600052602060002090601f016020900481019282601f106113bf57805160ff19168380011785556113ed565b828001600101855582156113ed579182015b828111156113ec5782518255916020019190600101906113d1565b5b5090506113fa91906113fe565b5090565b61142091905b8082111561141c576000816000905550600101611404565b5090565b90565b600081359050611432816120c7565b92915050565b600081519050611447816120de565b92915050565b600082601f83011261145e57600080fd5b813561147161146c82611ec8565b611e9b565b9150808252602083016020830185838301111561148d57600080fd5b611498838284612067565b50505092915050565b6000813590506114b0816120f5565b92915050565b6000813590506114c58161210c565b92915050565b6000813590506114da81612123565b92915050565b6000602082840312156114f257600080fd5b600061150084828501611423565b91505092915050565b60006020828403121561151b57600080fd5b600061152984828501611438565b91505092915050565b6000806000806080858703121561154857600080fd5b600085013567ffffffffffffffff81111561156257600080fd5b61156e8782880161144d565b945050602061157f878288016114cb565b9350506040611590878288016114a1565b92505060606115a1878288016114a1565b91505092959194509250565b6000602082840312156115bf57600080fd5b60006115cd848285016114b6565b91505092915050565b600080604083850312156115e957600080fd5b60006115f7858286016114b6565b9250506020611608858286016114b6565b9150509250929050565b60006020828403121561162457600080fd5b6000611632848285016114cb565b91505092915050565b61164481611fd7565b82525050565b61165381611f42565b82525050565b61166281611f30565b82525050565b61167181611fe9565b82525050565b6116808161200d565b82525050565b600061169182611f14565b61169b8185611f1f565b93506116ab818560208601612076565b6116b4816120a9565b840191505092915050565b60006116ca82611f09565b6116d48185611f1f565b93506116e4818560208601612076565b6116ed816120a9565b840191505092915050565b600081546001811660008114611715576001811461173b5761177f565b607f60028304166117268187611f1f565b955060ff19831686526020860193505061177f565b600282046117498187611f1f565b955061175485611ef4565b60005b8281101561177657815481890152600182019150602081019050611757565b80880195505050505b505092915050565b6000611794605083611f1f565b91507f5265717569726520666f726d756c6174696f6e206f662074686520647275672060008301527f746f20626520617070726f766564206265666f7265207374617274696e67207460208301527f6f206d616e7566616374757265206974000000000000000000000000000000006040830152606082019050919050565b6000611820602083611f1f565b91507f4f776e65722063616e6e6f742062757920746865206c6f742068696d73656c666000830152602082019050919050565b6000611860602983611f1f565b91507f4d616e75666163747572696e67206d757374206e6f742062652073746172746560008301527f6420616c726561647900000000000000000000000000000000000000000000006020830152604082019050919050565b60006118c6602683611f1f565b91507f5468652073706563696669656420616d6f756e7420657863656564732074686560008301527f206c696d697400000000000000000000000000000000000000000000000000006020830152604082019050919050565b600061192c602d83611f1f565b91507f4f6e6c7920746865206f776e65722073686f756c642062652061626c6520746f60008301527f2073656c6c20746865206c6f74000000000000000000000000000000000000006020830152604082019050919050565b6000611992601483611f1f565b91507f696e73756666696369656e74207061796d656e740000000000000000000000006000830152602082019050919050565b60006119d2601483611f1f565b91507f496e73756666696369656e74207061796d656e740000000000000000000000006000830152602082019050919050565b6000611a12604183611f1f565b91507f4d616e75666163747572696e6720737461747573206d7573742062652073746160008301527f7274656420696e206f7264657220746f206d61726b20697420636f6d706c657460208301527f65000000000000000000000000000000000000000000000000000000000000006040830152606082019050919050565b6000611a9e602e83611f1f565b91507f4c6f74206d757374206265206d616e756661637475726564206265666f72652060008301527f69742063616e20626520736f6c640000000000000000000000000000000000006020830152604082019050919050565b611b0081611f73565b82525050565b611b0f8161201f565b82525050565b611b1e81611f8f565b82525050565b611b2d81611fbd565b82525050565b611b3c81612055565b82525050565b611b4b81611fc7565b82525050565b6000602082019050611b666000830184611659565b92915050565b6000602082019050611b81600083018461164a565b92915050565b6000602082019050611b9c6000830184611668565b92915050565b6000602082019050611bb76000830184611677565b92915050565b60006020820190508181036000830152611bd781846116bf565b905092915050565b600060e0820190508181036000830152611bf9818a611686565b9050611c086020830189611b24565b611c156040830188611b24565b611c226060830187611b24565b611c2f6080830186611b24565b611c3c60a0830185611b24565b611c4960c0830184611659565b98975050505050505050565b60006080820190508181036000830152611c6f81876116f8565b9050611c7e6020830186611b42565b611c8b6040830185611b06565b611c986060830184611af7565b95945050505050565b60006020820190508181036000830152611cba81611787565b9050919050565b60006020820190508181036000830152611cda81611813565b9050919050565b60006020820190508181036000830152611cfa81611853565b9050919050565b60006020820190508181036000830152611d1a816118b9565b9050919050565b60006020820190508181036000830152611d3a8161191f565b9050919050565b60006020820190508181036000830152611d5a81611985565b9050919050565b60006020820190508181036000830152611d7a816119c5565b9050919050565b60006020820190508181036000830152611d9a81611a05565b9050919050565b60006020820190508181036000830152611dba81611a91565b9050919050565b6000602082019050611dd66000830184611af7565b92915050565b6000602082019050611df16000830184611b15565b92915050565b6000602082019050611e0c6000830184611b24565b92915050565b6000602082019050611e276000830184611b42565b92915050565b6000604082019050611e426000830185611b33565b611e4f602083018461163b565b9392505050565b6000608082019050611e6b6000830187611b42565b611e786020830186611af7565b611e856040830185611af7565b611e926060830184611b24565b95945050505050565b6000604051905081810181811067ffffffffffffffff82111715611ebe57600080fd5b8060405250919050565b600067ffffffffffffffff821115611edf57600080fd5b601f19601f8301169050602081019050919050565b60008190508160005260206000209050919050565b600081519050919050565b600081519050919050565b600082825260208201905092915050565b6000611f3b82611f9d565b9050919050565b6000611f4d82611f9d565b9050919050565b60008115159050919050565b6000819050611f6e826120ba565b919050565b60006fffffffffffffffffffffffffffffffff82169050919050565b600061ffff82169050919050565b600073ffffffffffffffffffffffffffffffffffffffff82169050919050565b6000819050919050565b600063ffffffff82169050919050565b6000611fe282612031565b9050919050565b6000611ff482611ffb565b9050919050565b600061200682611f9d565b9050919050565b600061201882611f60565b9050919050565b600061202a82611f73565b9050919050565b600061203c82612043565b9050919050565b600061204e82611f9d565b9050919050565b600061206082611fc7565b9050919050565b82818337600083830152505050565b60005b83811015612094578082015181840152602081019050612079565b838111156120a3576000848401525b50505050565b6000601f19601f8301169050919050565b600381106120c457fe5b50565b6120d081611f30565b81146120db57600080fd5b50565b6120e781611f54565b81146120f257600080fd5b50565b6120fe81611f73565b811461210957600080fd5b50565b61211581611fbd565b811461212057600080fd5b50565b61212c81611fc7565b811461213757600080fd5b5056fea264697066735822122052606bc7ebc06ad67e2c1f3f7aea2f283b5b13abc3437c9f12421bf59279299364736f6c63430006000033",
  "source": "pragma solidity ^0.6.0;\r\npragma experimental ABIEncoderV2;\r\n\r\nimport {DrugAPI} from \"./DrugAPI.sol\";\r\nimport {DrugFormulation} from \"./DrugFormulation.sol\";\r\nimport {Fda} from \"./Fda.sol\";\r\n\r\ncontract DrugLot {\r\n    enum ManufacturingStatus {\r\n        UNSTARTED,\r\n        STARTED,\r\n        COMPLETED\r\n    }\r\n    // properties\r\n    address payable public ownerId;\r\n    string public lotName;\r\n    uint32 public numBoxes;\r\n    uint128 public lotPrice;\r\n    uint128 public boxPrice;\r\n    uint256 public manufacturingDate;\r\n    uint256 public expiryDate;\r\n    ManufacturingStatus public manufacturingStatus;\r\n    mapping(address => uint256) public boxesPatient; //Mapping the purchased boxes to their corresonding patient ID\r\n    DrugFormulation public drugFormulation;\r\n    Fda private fda;\r\n    uint16[] public temperatureListings;\r\n    address[] public authorizedManufacturers;\r\n    address[] public authorizedDistributors;\r\n    address[] public authorizedPharmacies;\r\n\r\n    constructor(address _fdaAddress, address _drugFormulationAddress) public {\r\n        fda = Fda(_fdaAddress);\r\n        drugFormulation = DrugFormulation(_drugFormulationAddress);\r\n    }\r\n\r\n    // modifiers\r\n    modifier onlyOwner() {\r\n        require(\r\n            msg.sender == ownerId,\r\n            \"Only the owner should be able to sell the lot\"\r\n        );\r\n        _;\r\n    }\r\n\r\n    // events\r\n    event lotManufacturingStarted(\r\n        address manufacturer,\r\n        uint32 lotName,\r\n        uint32 numBoxes\r\n    );\r\n    event lotManufactured(\r\n        address indexed manufacturer,\r\n        uint32 numBoxes,\r\n        uint128 lotPrice,\r\n        uint128 boxPrice,\r\n        uint256 manufacturingDate\r\n    );\r\n    event lotOpenForSale(\r\n        address indexed seller,\r\n        string lotName,\r\n        uint32 numBoxes,\r\n        uint256 lotPrice,\r\n        uint128 boxPrice\r\n    );\r\n\r\n    event lotSold(address indexed newOwnerId);\r\n    event boxesSold(uint256 soldBoxes, address newownerID);\r\n\r\n    // functions\r\n\r\n    function startManufacturing(\r\n        string memory _lotName,\r\n        uint32 _numBoxes,\r\n        uint128 _lotPrice,\r\n        uint128 _boxPrice\r\n    ) public {\r\n        require(\r\n            manufacturingStatus == ManufacturingStatus.UNSTARTED,\r\n            \"Manufacturing must not be started already\"\r\n        );\r\n        require(\r\n            fda.checkDrugFormulationApproval(address(drugFormulation)),\r\n            \"Require formulation of the drug to be approved before starting to manufacture it\"\r\n        );\r\n        lotName = _lotName;\r\n        numBoxes = _numBoxes;\r\n        lotPrice = _lotPrice;\r\n        boxPrice = _boxPrice;\r\n    }\r\n\r\n    function completeManufacturing(\r\n        uint256 _manufacturingDate,\r\n        uint256 _expiryDate\r\n    ) public onlyOwner {\r\n        require(\r\n            manufacturingStatus == ManufacturingStatus.STARTED,\r\n            \"Manufacturing status must be started in order to mark it complete\"\r\n        );\r\n        manufacturingDate = _manufacturingDate;\r\n        expiryDate = _expiryDate;\r\n        manufacturingStatus = ManufacturingStatus.COMPLETED;\r\n        emit lotManufactured(\r\n            msg.sender,\r\n            numBoxes,\r\n            lotPrice,\r\n            boxPrice,\r\n            _manufacturingDate\r\n        );\r\n    }\r\n\r\n    function grantSale() public onlyOwner {\r\n        require(\r\n            manufacturingStatus == ManufacturingStatus.COMPLETED,\r\n            \"Lot must be manufactured before it can be sold\"\r\n        );\r\n        emit lotOpenForSale(ownerId, lotName, numBoxes, lotPrice, boxPrice);\r\n    }\r\n\r\n    function buyLot() public payable {\r\n        address payable buyer = msg.sender;\r\n        require(buyer != ownerId, \"Owner cannot buy the lot himself\");\r\n        require(msg.value >= lotPrice, \"Insufficient payment\");\r\n        uint256 refundAmount = msg.value - lotPrice;\r\n        if (refundAmount > 0) {\r\n            buyer.transfer(refundAmount);\r\n        }\r\n        ownerId.transfer(lotPrice);\r\n        emit lotSold(buyer);\r\n    }\r\n\r\n    function buyBox(uint32 _numBoxesToBuy) public payable {\r\n        address payable buyer = msg.sender;\r\n        address payable seller = ownerId;\r\n        require(\r\n            _numBoxesToBuy <= numBoxes,\r\n            \"The specified amount exceeds the limit\"\r\n        );\r\n        require(msg.value >= boxPrice * _numBoxesToBuy, \"insufficient payment\");\r\n        uint256 refundAmount = msg.value - (boxPrice * _numBoxesToBuy);\r\n        if (refundAmount > 0) {\r\n            msg.sender.transfer(refundAmount);\r\n        }\r\n\r\n        seller.transfer(boxPrice * _numBoxesToBuy); //Transfering ether to the seller\r\n        boxesPatient[buyer] = _numBoxesToBuy;\r\n        numBoxes -= _numBoxesToBuy;\r\n\r\n        emit boxesSold(_numBoxesToBuy, ownerId);\r\n    }\r\n\r\n    function viewLot()\r\n        public\r\n        view\r\n        returns (\r\n            string memory _lotName,\r\n            uint256 _lotPrice,\r\n            uint256 _numBoxes,\r\n            uint256 _boxPrice,\r\n            uint256 _manufacturingDate,\r\n            uint256 _expiryDate,\r\n            address _ownerId\r\n        )\r\n    {\r\n        return (\r\n            lotName,\r\n            lotPrice,\r\n            numBoxes,\r\n            boxPrice,\r\n            manufacturingDate,\r\n            expiryDate,\r\n            ownerId\r\n        );\r\n    }\r\n}\r\n",
  "sourcePath": "D:\\pharma-supply-chain\\backend\\contracts\\DrugLot.sol",
  "compiler": {
    "name": "solc",
    "version": "0.6.0+commit.26b70077.Emscripten.clang"
  },
  "schemaVersion": "3.4.11",
  "updatedAt": "2023-01-26T07:18:29.948Z",
  "devdoc": {
    "methods": {}
  },
  "userdoc": {
    "methods": {}
  }
}