{
  "contractName": "DrugAPI",
  "abi": [
    {
      "inputs": [
        {
          "internalType": "address",
          "name": "_fdaAddress",
          "type": "address"
        },
        {
          "internalType": "string",
          "name": "_name",
          "type": "string"
        },
        {
          "internalType": "uint16",
          "name": "_lowerTempBound",
          "type": "uint16"
        },
        {
          "internalType": "uint16",
          "name": "_upperTempBound",
          "type": "uint16"
        }
      ],
      "stateMutability": "nonpayable",
      "type": "constructor"
    },
    {
      "anonymous": false,
      "inputs": [
        {
          "indexed": false,
          "internalType": "address",
          "name": "drugAddress",
          "type": "address"
        },
        {
          "indexed": false,
          "internalType": "string",
          "name": "clinicalDataIpfsHash",
          "type": "string"
        }
      ],
      "name": "ClinicalTrialDataAdded",
      "type": "event"
    },
    {
      "inputs": [
        {
          "internalType": "string",
          "name": "_clinicalDataIpfsHash",
          "type": "string"
        }
      ],
      "name": "addClinicalData",
      "outputs": [],
      "stateMutability": "nonpayable",
      "type": "function"
    },
    {
      "inputs": [],
      "name": "clinicalDataIpfsHash",
      "outputs": [
        {
          "internalType": "string",
          "name": "",
          "type": "string"
        }
      ],
      "stateMutability": "view",
      "type": "function"
    },
    {
      "inputs": [],
      "name": "name",
      "outputs": [
        {
          "internalType": "string",
          "name": "",
          "type": "string"
        }
      ],
      "stateMutability": "view",
      "type": "function"
    },
    {
      "inputs": [],
      "name": "patentHolderAddress",
      "outputs": [
        {
          "internalType": "address",
          "name": "",
          "type": "address"
        }
      ],
      "stateMutability": "view",
      "type": "function"
    },
    {
      "inputs": [
        {
          "internalType": "uint256",
          "name": "",
          "type": "uint256"
        }
      ],
      "name": "temperatureBounds",
      "outputs": [
        {
          "internalType": "uint16",
          "name": "",
          "type": "uint16"
        }
      ],
      "stateMutability": "view",
      "type": "function"
    },
    {
      "inputs": [],
      "name": "isApproved",
      "outputs": [
        {
          "internalType": "bool",
          "name": "",
          "type": "bool"
        }
      ],
      "stateMutability": "view",
      "type": "function"
    },
    {
      "inputs": [],
      "name": "getPatentExpiry",
      "outputs": [
        {
          "internalType": "uint256",
          "name": "",
          "type": "uint256"
        }
      ],
      "stateMutability": "view",
      "type": "function"
    }
  ],
  "bytecode": "0x60806040523480156200001157600080fd5b5060405162000bbd38038062000bbd833981810160405260808110156200003757600080fd5b8101908080519060200190929190805160405193929190846401000000008211156200006257600080fd5b838201915060208201858111156200007957600080fd5b82518660018202830111640100000000821117156200009757600080fd5b8083526020830192505050908051906020019080838360005b83811015620000cd578082015181840152602081019050620000b0565b50505050905090810190601f168015620000fb5780820380516001836020036101000a031916815260200191505b50604052602001805190602001909291908051906020019092919050505083838383836000806101000a81548173ffffffffffffffffffffffffffffffffffffffff021916908373ffffffffffffffffffffffffffffffffffffffff160217905550826001908051906020019062000175929190620001fd565b5060405180604001604052808361ffff1661ffff1681526020018261ffff1661ffff168152506002906002620001ad92919062000284565b505050505033600460006101000a81548173ffffffffffffffffffffffffffffffffffffffff021916908373ffffffffffffffffffffffffffffffffffffffff1602179055505050505062000384565b828054600181600116156101000203166002900490600052602060002090601f016020900481019282601f106200024057805160ff191683800117855562000271565b8280016001018555821562000271579182015b828111156200027057825182559160200191906001019062000253565b5b50905062000280919062000328565b5090565b826002600f01601090048101928215620003155791602002820160005b83821115620002e357835183826101000a81548161ffff021916908361ffff1602179055509260200192600201602081600101049283019260010302620002a1565b8015620003135782816101000a81549061ffff0219169055600201602081600101049283019260010302620002e3565b505b50905062000324919062000350565b5090565b6200034d91905b80821115620003495760008160009055506001016200032f565b5090565b90565b6200038191905b808211156200037d57600081816101000a81549061ffff02191690555060010162000357565b5090565b90565b61082980620003946000396000f3fe608060405234801561001057600080fd5b506004361061007d5760003560e01c8063663a9f141161005b578063663a9f14146101715780636daeb8e4146101f45780637b27cb281461021257806390f2aca61461025c5761007d565b806306fdde0314610082578063188823e91461010557806328f371aa1461014f575b600080fd5b61008a610317565b6040518080602001828103825283818151815260200191508051906020019080838360005b838110156100ca5780820151818401526020810190506100af565b50505050905090810190601f1680156100f75780820380516001836020036101000a031916815260200191505b509250505060405180910390f35b6101316004803603602081101561011b57600080fd5b81019080803590602001909291905050506103b5565b604051808261ffff1661ffff16815260200191505060405180910390f35b6101576103e0565b604051808215151515815260200191505060405180910390f35b6101796104c0565b6040518080602001828103825283818151815260200191508051906020019080838360005b838110156101b957808201518184015260208101905061019e565b50505050905090810190601f1680156101e65780820380516001836020036101000a031916815260200191505b509250505060405180910390f35b6101fc61055e565b6040518082815260200191505060405180910390f35b61021a61063e565b604051808273ffffffffffffffffffffffffffffffffffffffff1673ffffffffffffffffffffffffffffffffffffffff16815260200191505060405180910390f35b6103156004803603602081101561027257600080fd5b810190808035906020019064010000000081111561028f57600080fd5b8201836020820111156102a157600080fd5b803590602001918460018302840111640100000000831117156102c357600080fd5b91908080601f016020809104026020016040519081016040528093929190818152602001838380828437600081840152601f19601f820116905080830192505050505050509192919290505050610664565b005b60018054600181600116156101000203166002900480601f0160208091040260200160405190810160405280929190818152602001828054600181600116156101000203166002900480156103ad5780601f10610382576101008083540402835291602001916103ad565b820191906000526020600020905b81548152906001019060200180831161039057829003601f168201915b505050505081565b600281600281106103c257fe5b60109182820401919006600202915054906101000a900461ffff1681565b60008060009054906101000a900473ffffffffffffffffffffffffffffffffffffffff1673ffffffffffffffffffffffffffffffffffffffff1663a2a5747b306040518263ffffffff1660e01b8152600401808273ffffffffffffffffffffffffffffffffffffffff1673ffffffffffffffffffffffffffffffffffffffff16815260200191505060206040518083038186803b15801561048057600080fd5b505afa158015610494573d6000803e3d6000fd5b505050506040513d60208110156104aa57600080fd5b8101908080519060200190929190505050905090565b60038054600181600116156101000203166002900480601f0160208091040260200160405190810160405280929190818152602001828054600181600116156101000203166002900480156105565780601f1061052b57610100808354040283529160200191610556565b820191906000526020600020905b81548152906001019060200180831161053957829003601f168201915b505050505081565b60008060009054906101000a900473ffffffffffffffffffffffffffffffffffffffff1673ffffffffffffffffffffffffffffffffffffffff16632ddefdae306040518263ffffffff1660e01b8152600401808273ffffffffffffffffffffffffffffffffffffffff1673ffffffffffffffffffffffffffffffffffffffff16815260200191505060206040518083038186803b1580156105fe57600080fd5b505afa158015610612573d6000803e3d6000fd5b505050506040513d602081101561062857600080fd5b8101908080519060200190929190505050905090565b600460009054906101000a900473ffffffffffffffffffffffffffffffffffffffff1681565b806003908051906020019061067a92919061074e565b507fa9e52b48544a80acb8be09a79bd95f58d0953f12ffba6b17335691fda0f996563082604051808373ffffffffffffffffffffffffffffffffffffffff1673ffffffffffffffffffffffffffffffffffffffff16815260200180602001828103825283818151815260200191508051906020019080838360005b838110156107105780820151818401526020810190506106f5565b50505050905090810190601f16801561073d5780820380516001836020036101000a031916815260200191505b50935050505060405180910390a150565b828054600181600116156101000203166002900490600052602060002090601f016020900481019282601f1061078f57805160ff19168380011785556107bd565b828001600101855582156107bd579182015b828111156107bc5782518255916020019190600101906107a1565b5b5090506107ca91906107ce565b5090565b6107f091905b808211156107ec5760008160009055506001016107d4565b5090565b9056fea2646970667358221220b48e8ba37c764e1404ae4d5d3dba1dca269bfc1029fdae6054b27d62b3c224a764736f6c63430006000033",
  "source": "pragma solidity ^0.6.0;\r\n\r\nimport {ComponentBase} from \"./ComponentBase.sol\";\r\n\r\ncontract DrugAPI is ComponentBase {\r\n    address public patentHolderAddress;\r\n\r\n    constructor(\r\n        address _fdaAddress,\r\n        string memory _name,\r\n        uint16 _lowerTempBound,\r\n        uint16 _upperTempBound\r\n    )\r\n        public\r\n        ComponentBase(_fdaAddress, _name, _lowerTempBound, _upperTempBound)\r\n    {\r\n        patentHolderAddress = msg.sender;\r\n    }\r\n\r\n    function isApproved() public view virtual override returns (bool) {\r\n        return fda.checkApiApproval(address(this));\r\n    }\r\n\r\n    function getPatentExpiry() public view returns (uint256) {\r\n        return fda.getApiPatentExpiry(address(this));\r\n    }\r\n}\r\n",
  "sourcePath": "D:\\pharma-supply-chain\\backend\\contracts\\DrugAPI.sol",
  "compiler": {
    "name": "solc",
    "version": "0.6.0+commit.26b70077.Emscripten.clang"
  },
  "schemaVersion": "3.4.11",
  "updatedAt": "2023-02-02T03:18:46.609Z",
  "devdoc": {
    "methods": {}
  },
  "userdoc": {
    "methods": {}
  }
}