{
  "contractName": "DrugLot",
  "abi": [
    {
      "inputs": [
        {
          "internalType": "address",
          "name": "_fdaAddress",
          "type": "address"
        },
        {
          "internalType": "address",
          "name": "_drugFormulationAddress",
          "type": "address"
        }
      ],
      "stateMutability": "nonpayable",
      "type": "constructor"
    },
    {
      "anonymous": false,
      "inputs": [
        {
          "indexed": false,
          "internalType": "uint256",
          "name": "soldBoxes",
          "type": "uint256"
        },
        {
          "indexed": false,
          "internalType": "address",
          "name": "newownerID",
          "type": "address"
        }
      ],
      "name": "boxesSold",
      "type": "event"
    },
    {
      "anonymous": false,
      "inputs": [
        {
          "indexed": true,
          "internalType": "address",
          "name": "manufacturer",
          "type": "address"
        },
        {
          "indexed": false,
          "internalType": "string",
          "name": "lotName",
          "type": "string"
        },
        {
          "indexed": false,
          "internalType": "uint32",
          "name": "numBoxes",
          "type": "uint32"
        },
        {
          "indexed": false,
          "internalType": "uint128",
          "name": "lotPrice",
          "type": "uint128"
        },
        {
          "indexed": false,
          "internalType": "uint128",
          "name": "boxPrice",
          "type": "uint128"
        },
        {
          "indexed": false,
          "internalType": "uint256",
          "name": "manufacturingDate",
          "type": "uint256"
        },
        {
          "indexed": false,
          "internalType": "uint256",
          "name": "expiryDate",
          "type": "uint256"
        }
      ],
      "name": "lotManufactured",
      "type": "event"
    },
    {
      "anonymous": false,
      "inputs": [
        {
          "indexed": false,
          "internalType": "address",
          "name": "manufacturer",
          "type": "address"
        },
        {
          "indexed": false,
          "internalType": "string",
          "name": "lotName",
          "type": "string"
        },
        {
          "indexed": false,
          "internalType": "uint32",
          "name": "numBoxes",
          "type": "uint32"
        }
      ],
      "name": "lotManufacturingStarted",
      "type": "event"
    },
    {
      "anonymous": false,
      "inputs": [
        {
          "indexed": true,
          "internalType": "address",
          "name": "seller",
          "type": "address"
        },
        {
          "indexed": false,
          "internalType": "string",
          "name": "lotName",
          "type": "string"
        },
        {
          "indexed": false,
          "internalType": "uint32",
          "name": "numBoxes",
          "type": "uint32"
        },
        {
          "indexed": false,
          "internalType": "uint256",
          "name": "lotPrice",
          "type": "uint256"
        },
        {
          "indexed": false,
          "internalType": "uint128",
          "name": "boxPrice",
          "type": "uint128"
        }
      ],
      "name": "lotOpenForSale",
      "type": "event"
    },
    {
      "anonymous": false,
      "inputs": [
        {
          "indexed": true,
          "internalType": "address",
          "name": "newOwnerId",
          "type": "address"
        }
      ],
      "name": "lotSold",
      "type": "event"
    },
    {
      "inputs": [
        {
          "internalType": "address",
          "name": "",
          "type": "address"
        }
      ],
      "name": "authorizedDistributors",
      "outputs": [
        {
          "internalType": "bool",
          "name": "",
          "type": "bool"
        }
      ],
      "stateMutability": "view",
      "type": "function"
    },
    {
      "inputs": [
        {
          "internalType": "address",
          "name": "",
          "type": "address"
        }
      ],
      "name": "authorizedManufacturers",
      "outputs": [
        {
          "internalType": "bool",
          "name": "",
          "type": "bool"
        }
      ],
      "stateMutability": "view",
      "type": "function"
    },
    {
      "inputs": [
        {
          "internalType": "address",
          "name": "",
          "type": "address"
        }
      ],
      "name": "authorizedPharmacies",
      "outputs": [
        {
          "internalType": "bool",
          "name": "",
          "type": "bool"
        }
      ],
      "stateMutability": "view",
      "type": "function"
    },
    {
      "inputs": [],
      "name": "boxPrice",
      "outputs": [
        {
          "internalType": "uint128",
          "name": "",
          "type": "uint128"
        }
      ],
      "stateMutability": "view",
      "type": "function"
    },
    {
      "inputs": [
        {
          "internalType": "address",
          "name": "",
          "type": "address"
        }
      ],
      "name": "boxesPatient",
      "outputs": [
        {
          "internalType": "uint256",
          "name": "",
          "type": "uint256"
        }
      ],
      "stateMutability": "view",
      "type": "function"
    },
    {
      "inputs": [],
      "name": "drugFormulation",
      "outputs": [
        {
          "internalType": "contract DrugFormulation",
          "name": "",
          "type": "address"
        }
      ],
      "stateMutability": "view",
      "type": "function"
    },
    {
      "inputs": [],
      "name": "expiryDate",
      "outputs": [
        {
          "internalType": "uint256",
          "name": "",
          "type": "uint256"
        }
      ],
      "stateMutability": "view",
      "type": "function"
    },
    {
      "inputs": [],
      "name": "lotName",
      "outputs": [
        {
          "internalType": "string",
          "name": "",
          "type": "string"
        }
      ],
      "stateMutability": "view",
      "type": "function"
    },
    {
      "inputs": [],
      "name": "lotPrice",
      "outputs": [
        {
          "internalType": "uint128",
          "name": "",
          "type": "uint128"
        }
      ],
      "stateMutability": "view",
      "type": "function"
    },
    {
      "inputs": [],
      "name": "manufacturingDate",
      "outputs": [
        {
          "internalType": "uint256",
          "name": "",
          "type": "uint256"
        }
      ],
      "stateMutability": "view",
      "type": "function"
    },
    {
      "inputs": [],
      "name": "manufacturingStatus",
      "outputs": [
        {
          "internalType": "enum DrugLot.ManufacturingStatus",
          "name": "",
          "type": "uint8"
        }
      ],
      "stateMutability": "view",
      "type": "function"
    },
    {
      "inputs": [],
      "name": "numBoxes",
      "outputs": [
        {
          "internalType": "uint32",
          "name": "",
          "type": "uint32"
        }
      ],
      "stateMutability": "view",
      "type": "function"
    },
    {
      "inputs": [],
      "name": "ownerId",
      "outputs": [
        {
          "internalType": "address payable",
          "name": "",
          "type": "address"
        }
      ],
      "stateMutability": "view",
      "type": "function"
    },
    {
      "inputs": [
        {
          "internalType": "uint256",
          "name": "",
          "type": "uint256"
        }
      ],
      "name": "temperatureListings",
      "outputs": [
        {
          "internalType": "uint16",
          "name": "",
          "type": "uint16"
        }
      ],
      "stateMutability": "view",
      "type": "function"
    },
    {
      "inputs": [
        {
          "internalType": "address",
          "name": "user",
          "type": "address"
        }
      ],
      "name": "manufacturerAddress",
      "outputs": [],
      "stateMutability": "nonpayable",
      "type": "function"
    },
    {
      "inputs": [
        {
          "internalType": "address",
          "name": "user",
          "type": "address"
        }
      ],
      "name": "distributorAddress",
      "outputs": [],
      "stateMutability": "nonpayable",
      "type": "function"
    },
    {
      "inputs": [
        {
          "internalType": "address",
          "name": "user",
          "type": "address"
        }
      ],
      "name": "pharmacyAddress",
      "outputs": [],
      "stateMutability": "nonpayable",
      "type": "function"
    },
    {
      "inputs": [
        {
          "internalType": "string",
          "name": "_lotName",
          "type": "string"
        },
        {
          "internalType": "uint32",
          "name": "_numBoxes",
          "type": "uint32"
        },
        {
          "internalType": "uint128",
          "name": "_lotPrice",
          "type": "uint128"
        },
        {
          "internalType": "uint128",
          "name": "_boxPrice",
          "type": "uint128"
        }
      ],
      "name": "startManufacturing",
      "outputs": [],
      "stateMutability": "nonpayable",
      "type": "function"
    },
    {
      "inputs": [
        {
          "internalType": "uint256",
          "name": "_manufacturingDate",
          "type": "uint256"
        },
        {
          "internalType": "uint256",
          "name": "_expiryDate",
          "type": "uint256"
        }
      ],
      "name": "completeManufacturing",
      "outputs": [],
      "stateMutability": "nonpayable",
      "type": "function"
    },
    {
      "inputs": [],
      "name": "grantSale",
      "outputs": [],
      "stateMutability": "nonpayable",
      "type": "function"
    },
    {
      "inputs": [],
      "name": "buyLot",
      "outputs": [],
      "stateMutability": "payable",
      "type": "function"
    },
    {
      "inputs": [
        {
          "internalType": "uint32",
          "name": "_numBoxesToBuy",
          "type": "uint32"
        }
      ],
      "name": "buyBox",
      "outputs": [],
      "stateMutability": "payable",
      "type": "function"
    },
    {
      "inputs": [],
      "name": "viewLot",
      "outputs": [
        {
          "internalType": "string",
          "name": "_lotName",
          "type": "string"
        },
        {
          "internalType": "uint256",
          "name": "_lotPrice",
          "type": "uint256"
        },
        {
          "internalType": "uint256",
          "name": "_numBoxes",
          "type": "uint256"
        },
        {
          "internalType": "uint256",
          "name": "_boxPrice",
          "type": "uint256"
        },
        {
          "internalType": "uint256",
          "name": "_manufacturingDate",
          "type": "uint256"
        },
        {
          "internalType": "uint256",
          "name": "_expiryDate",
          "type": "uint256"
        },
        {
          "internalType": "address",
          "name": "_ownerId",
          "type": "address"
        }
      ],
      "stateMutability": "view",
      "type": "function"
    }
  ],
  "bytecode": "0x60806040523480156200001157600080fd5b5060405162002c9a38038062002c9a833981810160405262000037919081019062000222565b81600960006101000a81548173ffffffffffffffffffffffffffffffffffffffff021916908373ffffffffffffffffffffffffffffffffffffffff160217905550600960009054906101000a900473ffffffffffffffffffffffffffffffffffffffff1673ffffffffffffffffffffffffffffffffffffffff16638730dd52826040518263ffffffff1660e01b8152600401620000d591906200032e565b60206040518083038186803b158015620000ee57600080fd5b505afa15801562000103573d6000803e3d6000fd5b505050506040513d601f19601f8201168201806040525062000129919081019062000263565b6200016b576040517f08c379a000000000000000000000000000000000000000000000000000000000815260040162000162906200034b565b60405180910390fd5b80600860006101000a81548173ffffffffffffffffffffffffffffffffffffffff021916908373ffffffffffffffffffffffffffffffffffffffff160217905550336000806101000a81548173ffffffffffffffffffffffffffffffffffffffff021916908373ffffffffffffffffffffffffffffffffffffffff1602179055505050620003f2565b6000815190506200020581620003be565b92915050565b6000815190506200021c81620003d8565b92915050565b600080604083850312156200023657600080fd5b60006200024685828601620001f4565b92505060206200025985828601620001f4565b9150509250929050565b6000602082840312156200027657600080fd5b600062000286848285016200020b565b91505092915050565b6200029a816200037e565b82525050565b6000620002af6050836200036d565b91507f5265717569726520666f726d756c6174696f6e206f662074686520647275672060008301527f746f20626520617070726f766564206265666f7265207374617274696e67207460208301527f6f206d616e7566616374757265206974000000000000000000000000000000006040830152606082019050919050565b60006020820190506200034560008301846200028f565b92915050565b600060208201905081810360008301526200036681620002a0565b9050919050565b600082825260208201905092915050565b60006200038b826200039e565b9050919050565b60008115159050919050565b600073ffffffffffffffffffffffffffffffffffffffff82169050919050565b620003c9816200037e565b8114620003d557600080fd5b50565b620003e38162000392565b8114620003ef57600080fd5b50565b61289880620004026000396000f3fe6080604052600436106101405760003560e01c80636f896e1e116100b6578063a64828581161006f578063a648285814610445578063a7ba92d914610470578063cd37e9581461049b578063ecefc03d146104c6578063f8fe25bc146104ef578063ffa66f971461050b57610140565b80636f896e1e146103095780637636ce691461033a5780637938100b146103655780638d1696c9146103a257806397490264146103df578063a4d4cd391461041c57610140565b8063271181ec11610108578063271181ec1461023e578063284106f8146102695780632ad5778b14610294578063427f74d0146102ab578063516dde43146102d457806366d95364146102ff57610140565b8063019c08f514610145578063100f33d3146101705780631f4baa611461019b57806321f3529b146101d857806324b0424514610201575b600080fd5b34801561015157600080fd5b5061015a610534565b60405161016791906121ef565b60405180910390f35b34801561017c57600080fd5b50610185610559565b604051610192919061227e565b60405180910390f35b3480156101a757600080fd5b506101c260048036036101bd9190810190611a80565b61056c565b6040516101cf9190612248565b60405180910390f35b3480156101e457600080fd5b506101ff60048036036101fa9190810190611aa9565b61058c565b005b34801561020d57600080fd5b5061022860048036036102239190810190611a80565b61078f565b6040516102359190612248565b60405180910390f35b34801561024a57600080fd5b506102536107af565b6040516102609190612545565b60405180910390f35b34801561027557600080fd5b5061027e6107d1565b60405161028b919061257b565b60405180910390f35b3480156102a057600080fd5b506102a96107d7565b005b3480156102b757600080fd5b506102d260048036036102cd9190810190611a80565b610a73565b005b3480156102e057600080fd5b506102e9610b5d565b6040516102f6919061257b565b60405180910390f35b610307610b63565b005b34801561031557600080fd5b5061031e610f59565b60405161033197969594939291906122bb565b60405180910390f35b34801561034657600080fd5b5061034f6110c8565b60405161035c9190612263565b60405180910390f35b34801561037157600080fd5b5061038c60048036036103879190810190611b24565b6110ee565b6040516103999190612560565b60405180910390f35b3480156103ae57600080fd5b506103c960048036036103c49190810190611a80565b611123565b6040516103d69190612248565b60405180910390f35b3480156103eb57600080fd5b5061040660048036036104019190810190611a80565b611143565b604051610413919061257b565b60405180910390f35b34801561042857600080fd5b50610443600480360361043e9190810190611a80565b61115b565b005b34801561045157600080fd5b5061045a611245565b6040516104679190612545565b60405180910390f35b34801561047c57600080fd5b50610485611267565b6040516104929190612596565b60405180910390f35b3480156104a757600080fd5b506104b061127d565b6040516104bd9190612299565b60405180910390f35b3480156104d257600080fd5b506104ed60048036036104e89190810190611a80565b61131b565b005b61050960048036036105049190810190611b89565b611405565b005b34801561051757600080fd5b50610532600480360361052d9190810190611b4d565b611762565b005b6000809054906101000a900473ffffffffffffffffffffffffffffffffffffffff1681565b600660009054906101000a900460ff1681565b600d6020528060005260406000206000915054906101000a900460ff1681565b600b60003373ffffffffffffffffffffffffffffffffffffffff1673ffffffffffffffffffffffffffffffffffffffff16815260200190815260200160002060009054906101000a900460ff16610618576040517f08c379a000000000000000000000000000000000000000000000000000000000815260040161060f906124c5565b60405180910390fd5b6000600281111561062557fe5b600660009054906101000a900460ff16600281111561064057fe5b14610680576040517f08c379a000000000000000000000000000000000000000000000000000000000815260040161067790612425565b60405180910390fd5b8360019080519060200190610696929190611933565b5082600260006101000a81548163ffffffff021916908363ffffffff16021790555081600260046101000a8154816fffffffffffffffffffffffffffffffff02191690836fffffffffffffffffffffffffffffffff16021790555080600360006101000a8154816fffffffffffffffffffffffffffffffff02191690836fffffffffffffffffffffffffffffffff1602179055506001600660006101000a81548160ff0219169083600281111561074957fe5b02179055507fb3628fbb555861b86b674bdec5b05bbbae609f4ce35c76b888d6a6c9216521e43385856040516107819392919061220a565b60405180910390a150505050565b600b6020528060005260406000206000915054906101000a900460ff1681565b600260049054906101000a90046fffffffffffffffffffffffffffffffff1681565b60045481565b6000809054906101000a900473ffffffffffffffffffffffffffffffffffffffff1673ffffffffffffffffffffffffffffffffffffffff163373ffffffffffffffffffffffffffffffffffffffff1614610866576040517f08c379a000000000000000000000000000000000000000000000000000000000815260040161085d90612465565b60405180910390fd5b600c60003373ffffffffffffffffffffffffffffffffffffffff1673ffffffffffffffffffffffffffffffffffffffff16815260200190815260200160002060009054906101000a900460ff16806109075750600b60003373ffffffffffffffffffffffffffffffffffffffff1673ffffffffffffffffffffffffffffffffffffffff16815260200190815260200160002060009054906101000a900460ff165b610946576040517f08c379a000000000000000000000000000000000000000000000000000000000815260040161093d906123e5565b60405180910390fd5b60028081111561095257fe5b600660009054906101000a900460ff16600281111561096d57fe5b146109ad576040517f08c379a00000000000000000000000000000000000000000000000000000000081526004016109a490612525565b60405180910390fd5b6000809054906101000a900473ffffffffffffffffffffffffffffffffffffffff1673ffffffffffffffffffffffffffffffffffffffff167f6dec1ee244579a1e5f273c41d38652ef36ad96cc7966c4838f6adff6e4e0320d6001600260009054906101000a900463ffffffff16600260049054906101000a90046fffffffffffffffffffffffffffffffff16600360009054906101000a90046fffffffffffffffffffffffffffffffff16604051610a699493929190612331565b60405180910390a2565b6000809054906101000a900473ffffffffffffffffffffffffffffffffffffffff1673ffffffffffffffffffffffffffffffffffffffff163373ffffffffffffffffffffffffffffffffffffffff1614610b02576040517f08c379a0000000000000000000000000000000000000000000000000000000008152600401610af990612465565b60405180910390fd5b6001600c60008373ffffffffffffffffffffffffffffffffffffffff1673ffffffffffffffffffffffffffffffffffffffff16815260200190815260200160002060006101000a81548160ff02191690831515021790555050565b60055481565b600c60003373ffffffffffffffffffffffffffffffffffffffff1673ffffffffffffffffffffffffffffffffffffffff16815260200190815260200160002060009054906101000a900460ff1680610c045750600d60003373ffffffffffffffffffffffffffffffffffffffff1673ffffffffffffffffffffffffffffffffffffffff16815260200190815260200160002060009054906101000a900460ff165b610c43576040517f08c379a0000000000000000000000000000000000000000000000000000000008152600401610c3a90612505565b60405180910390fd5b600280811115610c4f57fe5b600660009054906101000a900460ff166002811115610c6a57fe5b14610caa576040517f08c379a0000000000000000000000000000000000000000000000000000000008152600401610ca190612525565b60405180910390fd5b60003390506000809054906101000a900473ffffffffffffffffffffffffffffffffffffffff1673ffffffffffffffffffffffffffffffffffffffff168173ffffffffffffffffffffffffffffffffffffffff161415610d3f576040517f08c379a0000000000000000000000000000000000000000000000000000000008152600401610d3690612405565b60405180910390fd5b600260049054906101000a90046fffffffffffffffffffffffffffffffff166fffffffffffffffffffffffffffffffff16341015610db2576040517f08c379a0000000000000000000000000000000000000000000000000000000008152600401610da9906124a5565b60405180910390fd5b6000600260049054906101000a90046fffffffffffffffffffffffffffffffff166fffffffffffffffffffffffffffffffff16340390506000811115610e3a578173ffffffffffffffffffffffffffffffffffffffff166108fc829081150290604051600060405180830381858888f19350505050158015610e38573d6000803e3d6000fd5b505b6000809054906101000a900473ffffffffffffffffffffffffffffffffffffffff1673ffffffffffffffffffffffffffffffffffffffff166108fc600260049054906101000a90046fffffffffffffffffffffffffffffffff166fffffffffffffffffffffffffffffffff169081150290604051600060405180830381858888f19350505050158015610ed1573d6000803e3d6000fd5b50816000806101000a81548173ffffffffffffffffffffffffffffffffffffffff021916908373ffffffffffffffffffffffffffffffffffffffff1602179055508173ffffffffffffffffffffffffffffffffffffffff167feb373dc4c684e4ae6135618e7fc15d654b409d8071dc8126b4a5d18ac86590db60405160405180910390a25050565b60606000806000806000806001600260049054906101000a90046fffffffffffffffffffffffffffffffff16600260009054906101000a900463ffffffff16600360009054906101000a90046fffffffffffffffffffffffffffffffff166004546005546000809054906101000a900473ffffffffffffffffffffffffffffffffffffffff16868054600181600116156101000203166002900480601f0160208091040260200160405190810160405280929190818152602001828054600181600116156101000203166002900480156110745780601f1061104957610100808354040283529160200191611074565b820191906000526020600020905b81548152906001019060200180831161105757829003601f168201915b50505050509650856fffffffffffffffffffffffffffffffff1695508463ffffffff169450836fffffffffffffffffffffffffffffffff169350809050965096509650965096509650965090919293949596565b600860009054906101000a900473ffffffffffffffffffffffffffffffffffffffff1681565b600a81815481106110fb57fe5b9060005260206000209060109182820401919006600202915054906101000a900461ffff1681565b600c6020528060005260406000206000915054906101000a900460ff1681565b60076020528060005260406000206000915090505481565b6000809054906101000a900473ffffffffffffffffffffffffffffffffffffffff1673ffffffffffffffffffffffffffffffffffffffff163373ffffffffffffffffffffffffffffffffffffffff16146111ea576040517f08c379a00000000000000000000000000000000000000000000000000000000081526004016111e190612465565b60405180910390fd5b6001600d60008373ffffffffffffffffffffffffffffffffffffffff1673ffffffffffffffffffffffffffffffffffffffff16815260200190815260200160002060006101000a81548160ff02191690831515021790555050565b600360009054906101000a90046fffffffffffffffffffffffffffffffff1681565b600260009054906101000a900463ffffffff1681565b60018054600181600116156101000203166002900480601f0160208091040260200160405190810160405280929190818152602001828054600181600116156101000203166002900480156113135780601f106112e857610100808354040283529160200191611313565b820191906000526020600020905b8154815290600101906020018083116112f657829003601f168201915b505050505081565b6000809054906101000a900473ffffffffffffffffffffffffffffffffffffffff1673ffffffffffffffffffffffffffffffffffffffff163373ffffffffffffffffffffffffffffffffffffffff16146113aa576040517f08c379a00000000000000000000000000000000000000000000000000000000081526004016113a190612465565b60405180910390fd5b6001600b60008373ffffffffffffffffffffffffffffffffffffffff1673ffffffffffffffffffffffffffffffffffffffff16815260200190815260200160002060006101000a81548160ff02191690831515021790555050565b60028081111561141157fe5b600660009054906101000a900460ff16600281111561142c57fe5b1461146c576040517f08c379a000000000000000000000000000000000000000000000000000000000815260040161146390612525565b60405180910390fd5b600033905060008060009054906101000a900473ffffffffffffffffffffffffffffffffffffffff169050600260009054906101000a900463ffffffff1663ffffffff168363ffffffff1611156114f8576040517f08c379a00000000000000000000000000000000000000000000000000000000081526004016114ef90612445565b60405180910390fd5b8263ffffffff16600360009054906101000a90046fffffffffffffffffffffffffffffffff16026fffffffffffffffffffffffffffffffff16341015611573576040517f08c379a000000000000000000000000000000000000000000000000000000000815260040161156a90612485565b60405180910390fd5b60008363ffffffff16600360009054906101000a90046fffffffffffffffffffffffffffffffff16026fffffffffffffffffffffffffffffffff16340390506000811115611603573373ffffffffffffffffffffffffffffffffffffffff166108fc829081150290604051600060405180830381858888f19350505050158015611601573d6000803e3d6000fd5b505b8173ffffffffffffffffffffffffffffffffffffffff166108fc8563ffffffff16600360009054906101000a90046fffffffffffffffffffffffffffffffff16026fffffffffffffffffffffffffffffffff169081150290604051600060405180830381858888f19350505050158015611681573d6000803e3d6000fd5b508363ffffffff16600760008573ffffffffffffffffffffffffffffffffffffffff1673ffffffffffffffffffffffffffffffffffffffff1681526020019081526020016000208190555083600260008282829054906101000a900463ffffffff160392506101000a81548163ffffffff021916908363ffffffff1602179055507f82c28ddbad097bd1003a55cdb6788f38fbe3033fa91c813a8a00652716c0d45b846000809054906101000a900473ffffffffffffffffffffffffffffffffffffffff166040516117549291906125b1565b60405180910390a150505050565b600b60003373ffffffffffffffffffffffffffffffffffffffff1673ffffffffffffffffffffffffffffffffffffffff16815260200190815260200160002060009054906101000a900460ff166117ee576040517f08c379a00000000000000000000000000000000000000000000000000000000081526004016117e5906124c5565b60405180910390fd5b600160028111156117fb57fe5b600660009054906101000a900460ff16600281111561181657fe5b14611856576040517f08c379a000000000000000000000000000000000000000000000000000000000815260040161184d906124e5565b60405180910390fd5b81600481905550806005819055506002600660006101000a81548160ff0219169083600281111561188357fe5b02179055503373ffffffffffffffffffffffffffffffffffffffff167f0a54c4ace3dd6fdf0744b683cf045a1d0d9d159030959f0e5bcc7bf92e8f9e7b6001600260009054906101000a900463ffffffff16600260049054906101000a90046fffffffffffffffffffffffffffffffff16600360009054906101000a90046fffffffffffffffffffffffffffffffff1687876040516119279695949392919061237d565b60405180910390a25050565b828054600181600116156101000203166002900490600052602060002090601f016020900481019282601f1061197457805160ff19168380011785556119a2565b828001600101855582156119a2579182015b828111156119a1578251825591602001919060010190611986565b5b5090506119af91906119b3565b5090565b6119d591905b808211156119d15760008160009055506001016119b9565b5090565b90565b6000813590506119e781612806565b92915050565b600082601f8301126119fe57600080fd5b8135611a11611a0c82612607565b6125da565b91508082526020830160208301858383011115611a2d57600080fd5b611a388382846127a6565b50505092915050565b600081359050611a508161281d565b92915050565b600081359050611a6581612834565b92915050565b600081359050611a7a8161284b565b92915050565b600060208284031215611a9257600080fd5b6000611aa0848285016119d8565b91505092915050565b60008060008060808587031215611abf57600080fd5b600085013567ffffffffffffffff811115611ad957600080fd5b611ae5878288016119ed565b9450506020611af687828801611a6b565b9350506040611b0787828801611a41565b9250506060611b1887828801611a41565b91505092959194509250565b600060208284031215611b3657600080fd5b6000611b4484828501611a56565b91505092915050565b60008060408385031215611b6057600080fd5b6000611b6e85828601611a56565b9250506020611b7f85828601611a56565b9150509250929050565b600060208284031215611b9b57600080fd5b6000611ba984828501611a6b565b91505092915050565b611bbb81612716565b82525050565b611bca81612681565b82525050565b611bd98161266f565b82525050565b611be881612693565b82525050565b611bf781612728565b82525050565b611c068161274c565b82525050565b6000611c1782612653565b611c21818561265e565b9350611c318185602086016127b5565b611c3a816127e8565b840191505092915050565b6000611c5082612648565b611c5a818561265e565b9350611c6a8185602086016127b5565b611c73816127e8565b840191505092915050565b600081546001811660008114611c9b5760018114611cc157611d05565b607f6002830416611cac818761265e565b955060ff198316865260208601935050611d05565b60028204611ccf818761265e565b9550611cda85612633565b60005b82811015611cfc57815481890152600182019150602081019050611cdd565b80880195505050505b505092915050565b6000611d1a60468361265e565b91507f4f6e6c7920616e20617574686f72697a6564206d616e7566616374757265722060008301527f6f72206469737472696275746f722063616e20706572666f726d20746869732060208301527f616374696f6e00000000000000000000000000000000000000000000000000006040830152606082019050919050565b6000611da660208361265e565b91507f4f776e65722063616e6e6f742062757920746865206c6f742068696d73656c666000830152602082019050919050565b6000611de660298361265e565b91507f4d616e75666163747572696e67206d757374206e6f742062652073746172746560008301527f6420616c726561647900000000000000000000000000000000000000000000006020830152604082019050919050565b6000611e4c60268361265e565b91507f5468652073706563696669656420616d6f756e7420657863656564732074686560008301527f206c696d697400000000000000000000000000000000000000000000000000006020830152604082019050919050565b6000611eb2602f8361265e565b91507f4f6e6c7920746865206f776e65722073686f756c642062652061626c6520746f60008301527f20646f207468697320616374696f6e00000000000000000000000000000000006020830152604082019050919050565b6000611f1860148361265e565b91507f696e73756666696369656e74207061796d656e740000000000000000000000006000830152602082019050919050565b6000611f5860148361265e565b91507f496e73756666696369656e74207061796d656e740000000000000000000000006000830152602082019050919050565b6000611f9860378361265e565b91507f4f6e6c7920616e20617574686f72697a6564206d616e7566616374757265722060008301527f63616e20706572666f726d207468697320616374696f6e0000000000000000006020830152604082019050919050565b6000611ffe60418361265e565b91507f4d616e75666163747572696e6720737461747573206d7573742062652073746160008301527f7274656420696e206f7264657220746f206d61726b20697420636f6d706c657460208301527f65000000000000000000000000000000000000000000000000000000000000006040830152606082019050919050565b600061208a60428361265e565b91507f4f6e6c7920616e20617574686f72697a6564206469737472696275746f72206f60008301527f7220706861726d6163792063616e20706572666f726d2074686973206163746960208301527f6f6e0000000000000000000000000000000000000000000000000000000000006040830152606082019050919050565b600061211660428361265e565b91507f4d616e75666163747572696e672073686f756c6420626520636f6d706c65746560008301527f64206265666f7265206c6f742063616e20626520736f6c64206f7220626f756760208301527f68740000000000000000000000000000000000000000000000000000000000006040830152606082019050919050565b61219e816126b2565b82525050565b6121ad8161275e565b82525050565b6121bc816126ce565b82525050565b6121cb816126fc565b82525050565b6121da81612794565b82525050565b6121e981612706565b82525050565b60006020820190506122046000830184611bc1565b92915050565b600060608201905061221f6000830186611bb2565b81810360208301526122318185611c0c565b905061224060408301846121e0565b949350505050565b600060208201905061225d6000830184611bdf565b92915050565b60006020820190506122786000830184611bee565b92915050565b60006020820190506122936000830184611bfd565b92915050565b600060208201905081810360008301526122b38184611c45565b905092915050565b600060e08201905081810360008301526122d5818a611c0c565b90506122e460208301896121c2565b6122f160408301886121c2565b6122fe60608301876121c2565b61230b60808301866121c2565b61231860a08301856121c2565b61232560c0830184611bd0565b98975050505050505050565b6000608082019050818103600083015261234b8187611c7e565b905061235a60208301866121e0565b61236760408301856121a4565b6123746060830184612195565b95945050505050565b600060c08201905081810360008301526123978189611c7e565b90506123a660208301886121e0565b6123b36040830187612195565b6123c06060830186612195565b6123cd60808301856121c2565b6123da60a08301846121c2565b979650505050505050565b600060208201905081810360008301526123fe81611d0d565b9050919050565b6000602082019050818103600083015261241e81611d99565b9050919050565b6000602082019050818103600083015261243e81611dd9565b9050919050565b6000602082019050818103600083015261245e81611e3f565b9050919050565b6000602082019050818103600083015261247e81611ea5565b9050919050565b6000602082019050818103600083015261249e81611f0b565b9050919050565b600060208201905081810360008301526124be81611f4b565b9050919050565b600060208201905081810360008301526124de81611f8b565b9050919050565b600060208201905081810360008301526124fe81611ff1565b9050919050565b6000602082019050818103600083015261251e8161207d565b9050919050565b6000602082019050818103600083015261253e81612109565b9050919050565b600060208201905061255a6000830184612195565b92915050565b600060208201905061257560008301846121b3565b92915050565b600060208201905061259060008301846121c2565b92915050565b60006020820190506125ab60008301846121e0565b92915050565b60006040820190506125c660008301856121d1565b6125d36020830184611bb2565b9392505050565b6000604051905081810181811067ffffffffffffffff821117156125fd57600080fd5b8060405250919050565b600067ffffffffffffffff82111561261e57600080fd5b601f19601f8301169050602081019050919050565b60008190508160005260206000209050919050565b600081519050919050565b600081519050919050565b600082825260208201905092915050565b600061267a826126dc565b9050919050565b600061268c826126dc565b9050919050565b60008115159050919050565b60008190506126ad826127f9565b919050565b60006fffffffffffffffffffffffffffffffff82169050919050565b600061ffff82169050919050565b600073ffffffffffffffffffffffffffffffffffffffff82169050919050565b6000819050919050565b600063ffffffff82169050919050565b600061272182612770565b9050919050565b60006127338261273a565b9050919050565b6000612745826126dc565b9050919050565b60006127578261269f565b9050919050565b6000612769826126b2565b9050919050565b600061277b82612782565b9050919050565b600061278d826126dc565b9050919050565b600061279f82612706565b9050919050565b82818337600083830152505050565b60005b838110156127d35780820151818401526020810190506127b8565b838111156127e2576000848401525b50505050565b6000601f19601f8301169050919050565b6003811061280357fe5b50565b61280f8161266f565b811461281a57600080fd5b50565b612826816126b2565b811461283157600080fd5b50565b61283d816126fc565b811461284857600080fd5b50565b61285481612706565b811461285f57600080fd5b5056fea264697066735822122048cf1cc2feed82eb3bebe122a944145858dbdbf9ec2a2b0242de9c19132b28c864736f6c63430006000033",
  "source": "pragma solidity ^0.6.0;\r\npragma experimental ABIEncoderV2;\r\n\r\nimport {DrugAPI} from \"./DrugAPI.sol\";\r\nimport {DrugFormulation} from \"./DrugFormulation.sol\";\r\nimport {Fda} from \"./Fda.sol\";\r\n\r\ncontract DrugLot {\r\n    enum ManufacturingStatus {\r\n        UNSTARTED,\r\n        STARTED,\r\n        COMPLETED\r\n    }\r\n    // properties\r\n    address payable public ownerId;\r\n    string public lotName;\r\n    uint32 public numBoxes;\r\n    uint128 public lotPrice;\r\n    uint128 public boxPrice;\r\n    uint256 public manufacturingDate;\r\n    uint256 public expiryDate;\r\n    ManufacturingStatus public manufacturingStatus;\r\n    mapping(address => uint256) public boxesPatient; //Mapping the purchased boxes to their corresonding patient ID\r\n    DrugFormulation public drugFormulation;\r\n    Fda private fda;\r\n    uint16[] public temperatureListings;\r\n    mapping(address => bool) public authorizedManufacturers;\r\n    mapping(address => bool) public authorizedDistributors;\r\n    mapping(address => bool) public authorizedPharmacies;\r\n\r\n    constructor(address _fdaAddress, address _drugFormulationAddress) public {\r\n        fda = Fda(_fdaAddress);\r\n        require(\r\n            fda.checkDrugFormulationApproval(_drugFormulationAddress),\r\n            \"Require formulation of the drug to be approved before starting to manufacture it\"\r\n        );\r\n        drugFormulation = DrugFormulation(_drugFormulationAddress);\r\n        ownerId = msg.sender;\r\n    }\r\n\r\n    // modifiers\r\n    modifier onlyOwner() {\r\n        require(\r\n            msg.sender == ownerId,\r\n            \"Only the owner should be able to do this action\"\r\n        );\r\n        _;\r\n    }\r\n\r\n    modifier onlyManufacturer() {\r\n        require(\r\n            authorizedManufacturers[msg.sender],\r\n            \"Only an authorized manufacturer can perform this action\"\r\n        );\r\n        _;\r\n    }\r\n\r\n    modifier onlyDistributor() {\r\n        require(\r\n            authorizedDistributors[msg.sender],\r\n            \"Only an authorized distributor can perform this action\"\r\n        );\r\n        _;\r\n    }\r\n\r\n    modifier manufacturerOrDistributor() {\r\n        require(\r\n            authorizedDistributors[msg.sender] ||\r\n                authorizedManufacturers[msg.sender],\r\n            \"Only an authorized manufacturer or distributor can perform this action\"\r\n        );\r\n        _;\r\n    }\r\n\r\n    modifier distributorOrPharmacy() {\r\n        require(\r\n            authorizedDistributors[msg.sender] ||\r\n                authorizedPharmacies[msg.sender],\r\n            \"Only an authorized distributor or pharmacy can perform this action\"\r\n        );\r\n        _;\r\n    }\r\n\r\n    modifier onlyPharmacy() {\r\n        require(\r\n            authorizedPharmacies[msg.sender],\r\n            \"Only an authorized pharmacy can perform this action\"\r\n        );\r\n        _;\r\n    }\r\n\r\n    modifier onlyAfterManufacturing() {\r\n        require(\r\n            manufacturingStatus == ManufacturingStatus.COMPLETED,\r\n            \"Manufacturing should be completed before lot can be sold or bought\"\r\n        );\r\n        _;\r\n    }\r\n\r\n    // events\r\n    event lotManufacturingStarted(\r\n        address manufacturer,\r\n        string lotName,\r\n        uint32 numBoxes\r\n    );\r\n    event lotManufactured(\r\n        address indexed manufacturer,\r\n        string lotName,\r\n        uint32 numBoxes,\r\n        uint128 lotPrice,\r\n        uint128 boxPrice,\r\n        uint256 manufacturingDate,\r\n        uint256 expiryDate\r\n    );\r\n    event lotOpenForSale(\r\n        address indexed seller,\r\n        string lotName,\r\n        uint32 numBoxes,\r\n        uint256 lotPrice,\r\n        uint128 boxPrice\r\n    );\r\n\r\n    event lotSold(address indexed newOwnerId);\r\n    event boxesSold(uint256 soldBoxes, address newownerID);\r\n\r\n    //Authoorization functions\r\n    function manufacturerAddress(address user) public onlyOwner {\r\n        authorizedManufacturers[user] = true;\r\n    }\r\n\r\n    function distributorAddress(address user) public onlyOwner {\r\n        authorizedDistributors[user] = true;\r\n    }\r\n\r\n    function pharmacyAddress(address user) public onlyOwner {\r\n        authorizedPharmacies[user] = true;\r\n    }\r\n\r\n    // functions\r\n\r\n    function startManufacturing(\r\n        string memory _lotName,\r\n        uint32 _numBoxes,\r\n        uint128 _lotPrice,\r\n        uint128 _boxPrice\r\n    ) public onlyManufacturer {\r\n        require(\r\n            manufacturingStatus == ManufacturingStatus.UNSTARTED,\r\n            \"Manufacturing must not be started already\"\r\n        );\r\n        lotName = _lotName;\r\n        numBoxes = _numBoxes;\r\n        lotPrice = _lotPrice;\r\n        boxPrice = _boxPrice;\r\n        manufacturingStatus = ManufacturingStatus.STARTED;\r\n        emit lotManufacturingStarted(msg.sender, _lotName, _numBoxes);\r\n    }\r\n\r\n    function completeManufacturing(\r\n        uint256 _manufacturingDate,\r\n        uint256 _expiryDate\r\n    ) public onlyManufacturer {\r\n        require(\r\n            manufacturingStatus == ManufacturingStatus.STARTED,\r\n            \"Manufacturing status must be started in order to mark it complete\"\r\n        );\r\n        manufacturingDate = _manufacturingDate;\r\n        expiryDate = _expiryDate;\r\n        manufacturingStatus = ManufacturingStatus.COMPLETED;\r\n        emit lotManufactured(\r\n            msg.sender,\r\n            lotName,\r\n            numBoxes,\r\n            lotPrice,\r\n            boxPrice,\r\n            _manufacturingDate,\r\n            _expiryDate\r\n        );\r\n    }\r\n\r\n    function grantSale()\r\n        public\r\n        onlyOwner\r\n        manufacturerOrDistributor\r\n        onlyAfterManufacturing\r\n    {\r\n        emit lotOpenForSale(ownerId, lotName, numBoxes, lotPrice, boxPrice);\r\n    }\r\n\r\n    function buyLot()\r\n        public\r\n        payable\r\n        distributorOrPharmacy\r\n        onlyAfterManufacturing\r\n    {\r\n        address payable buyer = msg.sender;\r\n        require(buyer != ownerId, \"Owner cannot buy the lot himself\");\r\n        require(msg.value >= lotPrice, \"Insufficient payment\");\r\n        uint256 refundAmount = msg.value - lotPrice;\r\n        if (refundAmount > 0) {\r\n            buyer.transfer(refundAmount);\r\n        }\r\n        ownerId.transfer(lotPrice);\r\n        ownerId = buyer;\r\n        emit lotSold(buyer);\r\n    }\r\n\r\n    function buyBox(uint32 _numBoxesToBuy)\r\n        public\r\n        payable\r\n        onlyAfterManufacturing\r\n    {\r\n        address payable buyer = msg.sender;\r\n        address payable seller = ownerId;\r\n        require(\r\n            _numBoxesToBuy <= numBoxes,\r\n            \"The specified amount exceeds the limit\"\r\n        );\r\n        require(msg.value >= boxPrice * _numBoxesToBuy, \"insufficient payment\");\r\n        uint256 refundAmount = msg.value - (boxPrice * _numBoxesToBuy);\r\n        if (refundAmount > 0) {\r\n            msg.sender.transfer(refundAmount);\r\n        }\r\n\r\n        seller.transfer(boxPrice * _numBoxesToBuy); //Transfering ether to the seller\r\n        boxesPatient[buyer] = _numBoxesToBuy;\r\n        numBoxes -= _numBoxesToBuy;\r\n\r\n        emit boxesSold(_numBoxesToBuy, ownerId);\r\n    }\r\n\r\n    function viewLot()\r\n        public\r\n        view\r\n        returns (\r\n            string memory _lotName,\r\n            uint256 _lotPrice,\r\n            uint256 _numBoxes,\r\n            uint256 _boxPrice,\r\n            uint256 _manufacturingDate,\r\n            uint256 _expiryDate,\r\n            address _ownerId\r\n        )\r\n    {\r\n        return (\r\n            lotName,\r\n            lotPrice,\r\n            numBoxes,\r\n            boxPrice,\r\n            manufacturingDate,\r\n            expiryDate,\r\n            ownerId\r\n        );\r\n    }\r\n}\r\n",
  "sourcePath": "D:\\pharma-supply-chain\\backend\\contracts\\DrugLot.sol",
  "compiler": {
    "name": "solc",
    "version": "0.6.0+commit.26b70077.Emscripten.clang"
  },
  "schemaVersion": "3.4.11",
  "updatedAt": "2023-02-02T03:18:46.625Z",
  "devdoc": {
    "methods": {}
  },
  "userdoc": {
    "methods": {}
  }
}