{
  "contractName": "DrugExcipient",
  "abi": [
    {
      "inputs": [
        {
          "internalType": "address",
          "name": "_fdaAddress",
          "type": "address"
        },
        {
          "internalType": "string",
          "name": "_name",
          "type": "string"
        },
        {
          "internalType": "uint16",
          "name": "_lowerTempBound",
          "type": "uint16"
        },
        {
          "internalType": "uint16",
          "name": "_upperTempBound",
          "type": "uint16"
        }
      ],
      "stateMutability": "nonpayable",
      "type": "constructor"
    },
    {
      "anonymous": false,
      "inputs": [
        {
          "indexed": false,
          "internalType": "address",
          "name": "drugAddress",
          "type": "address"
        },
        {
          "indexed": false,
          "internalType": "string",
          "name": "clinicalDataIpfsHash",
          "type": "string"
        }
      ],
      "name": "ClinicalTrialDataAdded",
      "type": "event"
    },
    {
      "inputs": [
        {
          "internalType": "string",
          "name": "_clinicalDataIpfsHash",
          "type": "string"
        }
      ],
      "name": "addClinicalData",
      "outputs": [],
      "stateMutability": "nonpayable",
      "type": "function"
    },
    {
      "inputs": [],
      "name": "clinicalDataIpfsHash",
      "outputs": [
        {
          "internalType": "string",
          "name": "",
          "type": "string"
        }
      ],
      "stateMutability": "view",
      "type": "function"
    },
    {
      "inputs": [],
      "name": "name",
      "outputs": [
        {
          "internalType": "string",
          "name": "",
          "type": "string"
        }
      ],
      "stateMutability": "view",
      "type": "function"
    },
    {
      "inputs": [
        {
          "internalType": "uint256",
          "name": "",
          "type": "uint256"
        }
      ],
      "name": "temperatureBounds",
      "outputs": [
        {
          "internalType": "uint16",
          "name": "",
          "type": "uint16"
        }
      ],
      "stateMutability": "view",
      "type": "function"
    },
    {
      "inputs": [],
      "name": "isApproved",
      "outputs": [
        {
          "internalType": "bool",
          "name": "",
          "type": "bool"
        }
      ],
      "stateMutability": "view",
      "type": "function"
    }
  ],
  "bytecode": "0x608060405234801561001057600080fd5b50604051610a86380380610a868339818101604052608081101561003357600080fd5b81019080805190602001909291908051604051939291908464010000000082111561005d57600080fd5b8382019150602082018581111561007357600080fd5b825186600182028301116401000000008211171561009057600080fd5b8083526020830192505050908051906020019080838360005b838110156100c45780820151818401526020810190506100a9565b50505050905090810190601f1680156100f15780820380516001836020036101000a031916815260200191505b50604052602001805190602001909291908051906020019092919050505083838383836000806101000a81548173ffffffffffffffffffffffffffffffffffffffff021916908373ffffffffffffffffffffffffffffffffffffffff16021790555082600190805190602001906101699291906101ad565b5060405180604001604052808361ffff1661ffff1681526020018261ffff1661ffff16815250600290600261019f92919061022d565b505050505050505050610320565b828054600181600116156101000203166002900490600052602060002090601f016020900481019282601f106101ee57805160ff191683800117855561021c565b8280016001018555821561021c579182015b8281111561021b578251825591602001919060010190610200565b5b50905061022991906102ca565b5090565b826002600f016010900481019282156102b95791602002820160005b8382111561028957835183826101000a81548161ffff021916908361ffff1602179055509260200192600201602081600101049283019260010302610249565b80156102b75782816101000a81549061ffff0219169055600201602081600101049283019260010302610289565b505b5090506102c691906102ef565b5090565b6102ec91905b808211156102e85760008160009055506001016102d0565b5090565b90565b61031d91905b8082111561031957600081816101000a81549061ffff0219169055506001016102f5565b5090565b90565b6107578061032f6000396000f3fe608060405234801561001057600080fd5b50600436106100575760003560e01c806306fdde031461005c578063188823e9146100df57806328f371aa14610129578063663a9f141461014b57806390f2aca6146101ce575b600080fd5b610064610289565b6040518080602001828103825283818151815260200191508051906020019080838360005b838110156100a4578082015181840152602081019050610089565b50505050905090810190601f1680156100d15780820380516001836020036101000a031916815260200191505b509250505060405180910390f35b61010b600480360360208110156100f557600080fd5b8101908080359060200190929190505050610327565b604051808261ffff1661ffff16815260200191505060405180910390f35b610131610352565b604051808215151515815260200191505060405180910390f35b6101536104f4565b6040518080602001828103825283818151815260200191508051906020019080838360005b83811015610193578082015181840152602081019050610178565b50505050905090810190601f1680156101c05780820380516001836020036101000a031916815260200191505b509250505060405180910390f35b610287600480360360208110156101e457600080fd5b810190808035906020019064010000000081111561020157600080fd5b82018360208201111561021357600080fd5b8035906020019184600183028401116401000000008311171561023557600080fd5b91908080601f016020809104026020016040519081016040528093929190818152602001838380828437600081840152601f19601f820116905080830192505050505050509192919290505050610592565b005b60018054600181600116156101000203166002900480601f01602080910402602001604051908101604052809291908181526020018280546001816001161561010002031660029004801561031f5780601f106102f45761010080835404028352916020019161031f565b820191906000526020600020905b81548152906001019060200180831161030257829003601f168201915b505050505081565b6002816002811061033457fe5b60109182820401919006600202915054906101000a900461ffff1681565b6000806000809054906101000a900473ffffffffffffffffffffffffffffffffffffffff1673ffffffffffffffffffffffffffffffffffffffff1663659c7a65306040518263ffffffff1660e01b8152600401808273ffffffffffffffffffffffffffffffffffffffff1673ffffffffffffffffffffffffffffffffffffffff16815260200191505060006040518083038186803b1580156103f357600080fd5b505afa158015610407573d6000803e3d6000fd5b505050506040513d6000823e3d601f19601f82011682018060405250602081101561043157600080fd5b810190808051604051939291908464010000000082111561045157600080fd5b8382019150602082018581111561046757600080fd5b825186600182028301116401000000008211171561048457600080fd5b8083526020830192505050908051906020019080838360005b838110156104b857808201518184015260208101905061049d565b50505050905090810190601f1680156104e55780820380516001836020036101000a031916815260200191505b50604052505050511415905090565b60038054600181600116156101000203166002900480601f01602080910402602001604051908101604052809291908181526020018280546001816001161561010002031660029004801561058a5780601f1061055f5761010080835404028352916020019161058a565b820191906000526020600020905b81548152906001019060200180831161056d57829003601f168201915b505050505081565b80600390805190602001906105a892919061067c565b507fa9e52b48544a80acb8be09a79bd95f58d0953f12ffba6b17335691fda0f996563082604051808373ffffffffffffffffffffffffffffffffffffffff1673ffffffffffffffffffffffffffffffffffffffff16815260200180602001828103825283818151815260200191508051906020019080838360005b8381101561063e578082015181840152602081019050610623565b50505050905090810190601f16801561066b5780820380516001836020036101000a031916815260200191505b50935050505060405180910390a150565b828054600181600116156101000203166002900490600052602060002090601f016020900481019282601f106106bd57805160ff19168380011785556106eb565b828001600101855582156106eb579182015b828111156106ea5782518255916020019190600101906106cf565b5b5090506106f891906106fc565b5090565b61071e91905b8082111561071a576000816000905550600101610702565b5090565b9056fea2646970667358221220526d1fd18eae4f39c77797c860a83d5ef38a4b470b6413e1e1d556d84362f32364736f6c63430006000033",
  "source": "pragma solidity ^0.6.0;\r\n\r\nimport {ComponentBase} from \"./ComponentBase.sol\";\r\n\r\ncontract DrugExcipient is ComponentBase {\r\n    constructor(\r\n        address _fdaAddress,\r\n        string memory _name,\r\n        uint16 _lowerTempBound,\r\n        uint16 _upperTempBound\r\n    )\r\n        public\r\n        ComponentBase(_fdaAddress, _name, _lowerTempBound, _upperTempBound)\r\n    {}\r\n\r\n    function isApproved() public view virtual override returns (bool) {\r\n        return bytes(fda.checkExcipientApproval(address(this))).length != 0;\r\n    }\r\n}\r\n",
  "sourcePath": "D:\\pharma-supply-chain\\backend\\contracts\\DrugExcipient.sol",
  "compiler": {
    "name": "solc",
    "version": "0.6.0+commit.26b70077.Emscripten.clang"
  },
  "schemaVersion": "3.4.11",
  "updatedAt": "2023-02-02T03:18:46.612Z",
  "devdoc": {
    "methods": {}
  },
  "userdoc": {
    "methods": {}
  }
}