{
  "contractName": "Fda",
  "abi": [
    {
      "inputs": [],
      "stateMutability": "nonpayable",
      "type": "constructor"
    },
    {
      "anonymous": false,
      "inputs": [
        {
          "indexed": true,
          "internalType": "address",
          "name": "drugApiAddress",
          "type": "address"
        }
      ],
      "name": "DrugAPIApproved",
      "type": "event"
    },
    {
      "anonymous": false,
      "inputs": [
        {
          "indexed": true,
          "internalType": "address",
          "name": "drugApiAddress",
          "type": "address"
        },
        {
          "indexed": false,
          "internalType": "string",
          "name": "rejectionReason",
          "type": "string"
        }
      ],
      "name": "DrugAPIRejected",
      "type": "event"
    },
    {
      "anonymous": false,
      "inputs": [
        {
          "indexed": true,
          "internalType": "address",
          "name": "drugExcipientAddress",
          "type": "address"
        },
        {
          "indexed": false,
          "internalType": "string",
          "name": "quantityMg",
          "type": "string"
        }
      ],
      "name": "DrugExcipientApproved",
      "type": "event"
    },
    {
      "anonymous": false,
      "inputs": [
        {
          "indexed": true,
          "internalType": "address",
          "name": "drugExcipientAddress",
          "type": "address"
        },
        {
          "indexed": false,
          "internalType": "string",
          "name": "rejectionReason",
          "type": "string"
        }
      ],
      "name": "DrugExcipientRejected",
      "type": "event"
    },
    {
      "anonymous": false,
      "inputs": [
        {
          "indexed": true,
          "internalType": "address",
          "name": "drugAddress",
          "type": "address"
        }
      ],
      "name": "DrugFormulationApproved",
      "type": "event"
    },
    {
      "anonymous": false,
      "inputs": [
        {
          "indexed": true,
          "internalType": "address",
          "name": "drugAddress",
          "type": "address"
        },
        {
          "indexed": false,
          "internalType": "string",
          "name": "rejectionReason",
          "type": "string"
        }
      ],
      "name": "DrugFormulationRejected",
      "type": "event"
    },
    {
      "inputs": [],
      "name": "admin",
      "outputs": [
        {
          "internalType": "address",
          "name": "",
          "type": "address"
        }
      ],
      "stateMutability": "view",
      "type": "function",
      "constant": true
    },
    {
      "inputs": [
        {
          "internalType": "uint256",
          "name": "",
          "type": "uint256"
        }
      ],
      "name": "approvedApiList",
      "outputs": [
        {
          "internalType": "address",
          "name": "",
          "type": "address"
        }
      ],
      "stateMutability": "view",
      "type": "function",
      "constant": true
    },
    {
      "inputs": [
        {
          "internalType": "uint256",
          "name": "",
          "type": "uint256"
        }
      ],
      "name": "approvedDrugFormulationList",
      "outputs": [
        {
          "internalType": "address",
          "name": "",
          "type": "address"
        }
      ],
      "stateMutability": "view",
      "type": "function",
      "constant": true
    },
    {
      "inputs": [
        {
          "internalType": "address",
          "name": "_approverAddress",
          "type": "address"
        }
      ],
      "name": "addApprover",
      "outputs": [],
      "stateMutability": "nonpayable",
      "type": "function"
    },
    {
      "inputs": [
        {
          "internalType": "address",
          "name": "_approverAddress",
          "type": "address"
        }
      ],
      "name": "removeApprover",
      "outputs": [],
      "stateMutability": "nonpayable",
      "type": "function"
    },
    {
      "inputs": [
        {
          "internalType": "address",
          "name": "_newAdminAddress",
          "type": "address"
        }
      ],
      "name": "changeAdmin",
      "outputs": [],
      "stateMutability": "nonpayable",
      "type": "function"
    },
    {
      "inputs": [
        {
          "internalType": "address",
          "name": "_drugFormulationAddress",
          "type": "address"
        }
      ],
      "name": "approveDrugFormulation",
      "outputs": [],
      "stateMutability": "nonpayable",
      "type": "function"
    },
    {
      "inputs": [
        {
          "internalType": "address",
          "name": "_drugFormulationAddress",
          "type": "address"
        },
        {
          "internalType": "string",
          "name": "_rejectionReason",
          "type": "string"
        }
      ],
      "name": "rejectDrugFormulation",
      "outputs": [],
      "stateMutability": "nonpayable",
      "type": "function"
    },
    {
      "inputs": [
        {
          "internalType": "address",
          "name": "_drugApiAddress",
          "type": "address"
        },
        {
          "internalType": "uint256",
          "name": "_patentExpiry",
          "type": "uint256"
        }
      ],
      "name": "approveDrugApi",
      "outputs": [],
      "stateMutability": "nonpayable",
      "type": "function"
    },
    {
      "inputs": [
        {
          "internalType": "address",
          "name": "_drugApiAddress",
          "type": "address"
        }
      ],
      "name": "getApiPatentExpiry",
      "outputs": [
        {
          "internalType": "uint256",
          "name": "",
          "type": "uint256"
        }
      ],
      "stateMutability": "view",
      "type": "function",
      "constant": true
    },
    {
      "inputs": [
        {
          "internalType": "address",
          "name": "_drugApiAddress",
          "type": "address"
        },
        {
          "internalType": "string",
          "name": "_rejectionReason",
          "type": "string"
        }
      ],
      "name": "rejectDrugApi",
      "outputs": [],
      "stateMutability": "nonpayable",
      "type": "function"
    },
    {
      "inputs": [
        {
          "internalType": "address",
          "name": "_drugExcipientAddress",
          "type": "address"
        },
        {
          "internalType": "string",
          "name": "quantityMg",
          "type": "string"
        }
      ],
      "name": "approveDrugExcipient",
      "outputs": [],
      "stateMutability": "nonpayable",
      "type": "function"
    },
    {
      "inputs": [
        {
          "internalType": "address",
          "name": "_drugExcipientAddress",
          "type": "address"
        },
        {
          "internalType": "string",
          "name": "_rejectionReason",
          "type": "string"
        }
      ],
      "name": "rejectDrugExcipient",
      "outputs": [],
      "stateMutability": "nonpayable",
      "type": "function"
    },
    {
      "inputs": [
        {
          "internalType": "address",
          "name": "_drugFormulationAddress",
          "type": "address"
        }
      ],
      "name": "checkDrugFormulationApproval",
      "outputs": [
        {
          "internalType": "bool",
          "name": "",
          "type": "bool"
        }
      ],
      "stateMutability": "view",
      "type": "function",
      "constant": true
    },
    {
      "inputs": [
        {
          "internalType": "address",
          "name": "_apiAddress",
          "type": "address"
        }
      ],
      "name": "checkApiApproval",
      "outputs": [
        {
          "internalType": "bool",
          "name": "",
          "type": "bool"
        }
      ],
      "stateMutability": "view",
      "type": "function",
      "constant": true
    },
    {
      "inputs": [
        {
          "internalType": "address",
          "name": "_excipientAddress",
          "type": "address"
        }
      ],
      "name": "checkExcipientApproval",
      "outputs": [
        {
          "internalType": "string",
          "name": "",
          "type": "string"
        }
      ],
      "stateMutability": "view",
      "type": "function",
      "constant": true
    }
  ],
  "bytecode": "0x608060405234801561001057600080fd5b50336000806101000a81548173ffffffffffffffffffffffffffffffffffffffff021916908373ffffffffffffffffffffffffffffffffffffffff1602179055506119e9806100606000396000f3fe608060405234801561001057600080fd5b50600436106101005760003560e01c80638730dd5211610097578063a2a5747b11610066578063a2a5747b146106fd578063ac7b14cc14610759578063b646c19414610834578063f851a4401461087857610100565b80638730dd52146105145780638760249e146105705780638f283970146105de57806394b24de41461062257610100565b80634bd5e48f116100d35780634bd5e48f146102ca578063659c7a65146103385780636cf4c88f146103f5578063723e88bd1461043957610100565b806322141a2f146101055780632ddefdae146101535780633560c15c146101ab5780634253ff3414610286575b600080fd5b6101516004803603604081101561011b57600080fd5b81019080803573ffffffffffffffffffffffffffffffffffffffff169060200190929190803590602001909291905050506108c2565b005b6101956004803603602081101561016957600080fd5b81019080803573ffffffffffffffffffffffffffffffffffffffff169060200190929190505050610a6f565b6040518082815260200191505060405180910390f35b610284600480360360408110156101c157600080fd5b81019080803573ffffffffffffffffffffffffffffffffffffffff169060200190929190803590602001906401000000008111156101fe57600080fd5b82018360208201111561021057600080fd5b8035906020019184600183028401116401000000008311171561023257600080fd5b91908080601f016020809104026020016040519081016040528093929190818152602001838380828437600081840152601f19601f820116905080830192505050505050509192919290505050610ab8565b005b6102c86004803603602081101561029c57600080fd5b81019080803573ffffffffffffffffffffffffffffffffffffffff169060200190929190505050610c2e565b005b6102f6600480360360208110156102e057600080fd5b8101908080359060200190929190505050610d96565b604051808273ffffffffffffffffffffffffffffffffffffffff1673ffffffffffffffffffffffffffffffffffffffff16815260200191505060405180910390f35b61037a6004803603602081101561034e57600080fd5b81019080803573ffffffffffffffffffffffffffffffffffffffff169060200190929190505050610dd2565b6040518080602001828103825283818151815260200191508051906020019080838360005b838110156103ba57808201518184015260208101905061039f565b50505050905090810190601f1680156103e75780820380516001836020036101000a031916815260200191505b509250505060405180910390f35b6104376004803603602081101561040b57600080fd5b81019080803573ffffffffffffffffffffffffffffffffffffffff169060200190929190505050610eb3565b005b6105126004803603604081101561044f57600080fd5b81019080803573ffffffffffffffffffffffffffffffffffffffff1690602001909291908035906020019064010000000081111561048c57600080fd5b82018360208201111561049e57600080fd5b803590602001918460018302840111640100000000831117156104c057600080fd5b91908080601f016020809104026020016040519081016040528093929190818152602001838380828437600081840152601f19601f820116905080830192505050505050509192919290505050610fd0565b005b6105566004803603602081101561052a57600080fd5b81019080803573ffffffffffffffffffffffffffffffffffffffff169060200190929190505050611146565b604051808215151515815260200191505060405180910390f35b61059c6004803603602081101561058657600080fd5b81019080803590602001909291905050506111e8565b604051808273ffffffffffffffffffffffffffffffffffffffff1673ffffffffffffffffffffffffffffffffffffffff16815260200191505060405180910390f35b610620600480360360208110156105f457600080fd5b81019080803573ffffffffffffffffffffffffffffffffffffffff169060200190929190505050611224565b005b6106fb6004803603604081101561063857600080fd5b81019080803573ffffffffffffffffffffffffffffffffffffffff1690602001909291908035906020019064010000000081111561067557600080fd5b82018360208201111561068757600080fd5b803590602001918460018302840111640100000000831117156106a957600080fd5b91908080601f016020809104026020016040519081016040528093929190818152602001838380828437600081840152601f19601f820116905080830192505050505050509192919290505050611329565b005b61073f6004803603602081101561071357600080fd5b81019080803573ffffffffffffffffffffffffffffffffffffffff16906020019092919050505061149f565b604051808215151515815260200191505060405180910390f35b6108326004803603604081101561076f57600080fd5b81019080803573ffffffffffffffffffffffffffffffffffffffff169060200190929190803590602001906401000000008111156107ac57600080fd5b8201836020820111156107be57600080fd5b803590602001918460018302840111640100000000831117156107e057600080fd5b91908080601f016020809104026020016040519081016040528093929190818152602001838380828437600081840152601f19601f820116905080830192505050505050509192919290505050611541565b005b6108766004803603602081101561084a57600080fd5b81019080803573ffffffffffffffffffffffffffffffffffffffff16906020019092919050505061170b565b005b6108806118e9565b604051808273ffffffffffffffffffffffffffffffffffffffff1673ffffffffffffffffffffffffffffffffffffffff16815260200191505060405180910390f35b600160003373ffffffffffffffffffffffffffffffffffffffff1673ffffffffffffffffffffffffffffffffffffffff16815260200190815260200160002060009054906101000a900460ff16610981576040517f08c379a000000000000000000000000000000000000000000000000000000000815260040180806020018281038252601c8152602001807f4f6e6c7920616e20617070726f7665722063616e20646f20746869730000000081525060200191505060405180910390fd5b6003829080600181540180825580915050600190039060005260206000200160009091909190916101000a81548173ffffffffffffffffffffffffffffffffffffffff021916908373ffffffffffffffffffffffffffffffffffffffff16021790555080600460008473ffffffffffffffffffffffffffffffffffffffff1673ffffffffffffffffffffffffffffffffffffffff168152602001908152602001600020819055508173ffffffffffffffffffffffffffffffffffffffff167f4d24e9e2c4c71e391fdd55a9b465a0cbb0000ead4d3163940332c24b65b2cd8560405160405180910390a25050565b6000600460008373ffffffffffffffffffffffffffffffffffffffff1673ffffffffffffffffffffffffffffffffffffffff168152602001908152602001600020549050919050565b600160003373ffffffffffffffffffffffffffffffffffffffff1673ffffffffffffffffffffffffffffffffffffffff16815260200190815260200160002060009054906101000a900460ff16610b77576040517f08c379a000000000000000000000000000000000000000000000000000000000815260040180806020018281038252601c8152602001807f4f6e6c7920616e20617070726f7665722063616e20646f20746869730000000081525060200191505060405180910390fd5b8173ffffffffffffffffffffffffffffffffffffffff167fdbb28216b4bd4696eee3898bfc7517dd66486fe74e1939653370218b96e905d8826040518080602001828103825283818151815260200191508051906020019080838360005b83811015610bf0578082015181840152602081019050610bd5565b50505050905090810190601f168015610c1d5780820380516001836020036101000a031916815260200191505b509250505060405180910390a25050565b600160003373ffffffffffffffffffffffffffffffffffffffff1673ffffffffffffffffffffffffffffffffffffffff16815260200190815260200160002060009054906101000a900460ff16610ced576040517f08c379a000000000000000000000000000000000000000000000000000000000815260040180806020018281038252601c8152602001807f4f6e6c7920616e20617070726f7665722063616e20646f20746869730000000081525060200191505060405180910390fd5b6002819080600181540180825580915050600190039060005260206000200160009091909190916101000a81548173ffffffffffffffffffffffffffffffffffffffff021916908373ffffffffffffffffffffffffffffffffffffffff1602179055508073ffffffffffffffffffffffffffffffffffffffff167f7fea5b43f5ee453928913fc4f7c5aa6e1843d602ebe8532714a359c9d1a9f02c60405160405180910390a250565b60028181548110610da357fe5b906000526020600020016000915054906101000a900473ffffffffffffffffffffffffffffffffffffffff1681565b6060600560008373ffffffffffffffffffffffffffffffffffffffff1673ffffffffffffffffffffffffffffffffffffffff1681526020019081526020016000208054600181600116156101000203166002900480601f016020809104026020016040519081016040528092919081815260200182805460018160011615610100020316600290048015610ea75780601f10610e7c57610100808354040283529160200191610ea7565b820191906000526020600020905b815481529060010190602001808311610e8a57829003601f168201915b50505050509050919050565b6000809054906101000a900473ffffffffffffffffffffffffffffffffffffffff1673ffffffffffffffffffffffffffffffffffffffff163373ffffffffffffffffffffffffffffffffffffffff1614610f75576040517f08c379a00000000000000000000000000000000000000000000000000000000081526004018080602001828103825260168152602001807f4f6e6c792061646d696e2063616e20646f20746869730000000000000000000081525060200191505060405180910390fd5b6000600160008373ffffffffffffffffffffffffffffffffffffffff1673ffffffffffffffffffffffffffffffffffffffff16815260200190815260200160002060006101000a81548160ff02191690831515021790555050565b600160003373ffffffffffffffffffffffffffffffffffffffff1673ffffffffffffffffffffffffffffffffffffffff16815260200190815260200160002060009054906101000a900460ff1661108f576040517f08c379a000000000000000000000000000000000000000000000000000000000815260040180806020018281038252601c8152602001807f4f6e6c7920616e20617070726f7665722063616e20646f20746869730000000081525060200191505060405180910390fd5b8173ffffffffffffffffffffffffffffffffffffffff167f42931ce9466785fdfac623cf2d89d4e6e0c55e5425d398dce1ef6ccb15dd5484826040518080602001828103825283818151815260200191508051906020019080838360005b838110156111085780820151818401526020810190506110ed565b50505050905090810190601f1680156111355780820380516001836020036101000a031916815260200191505b509250505060405180910390a25050565b600080600090505b6002805490508110156111dd576002818154811061116857fe5b9060005260206000200160009054906101000a900473ffffffffffffffffffffffffffffffffffffffff1673ffffffffffffffffffffffffffffffffffffffff168373ffffffffffffffffffffffffffffffffffffffff1614156111d05760019150506111e3565b808060010191505061114e565b50600090505b919050565b600381815481106111f557fe5b906000526020600020016000915054906101000a900473ffffffffffffffffffffffffffffffffffffffff1681565b6000809054906101000a900473ffffffffffffffffffffffffffffffffffffffff1673ffffffffffffffffffffffffffffffffffffffff163373ffffffffffffffffffffffffffffffffffffffff16146112e6576040517f08c379a00000000000000000000000000000000000000000000000000000000081526004018080602001828103825260168152602001807f4f6e6c792061646d696e2063616e20646f20746869730000000000000000000081525060200191505060405180910390fd5b806000806101000a81548173ffffffffffffffffffffffffffffffffffffffff021916908373ffffffffffffffffffffffffffffffffffffffff16021790555050565b600160003373ffffffffffffffffffffffffffffffffffffffff1673ffffffffffffffffffffffffffffffffffffffff16815260200190815260200160002060009054906101000a900460ff166113e8576040517f08c379a000000000000000000000000000000000000000000000000000000000815260040180806020018281038252601c8152602001807f4f6e6c7920616e20617070726f7665722063616e20646f20746869730000000081525060200191505060405180910390fd5b8173ffffffffffffffffffffffffffffffffffffffff167f624c134087b9b01dbc85e06637ebf7a838825d66012b3e208490aabf03ac3c32826040518080602001828103825283818151815260200191508051906020019080838360005b83811015611461578082015181840152602081019050611446565b50505050905090810190601f16801561148e5780820380516001836020036101000a031916815260200191505b509250505060405180910390a25050565b600080600090505b60038054905081101561153657600381815481106114c157fe5b9060005260206000200160009054906101000a900473ffffffffffffffffffffffffffffffffffffffff1673ffffffffffffffffffffffffffffffffffffffff168373ffffffffffffffffffffffffffffffffffffffff16141561152957600191505061153c565b80806001019150506114a7565b50600090505b919050565b600160003373ffffffffffffffffffffffffffffffffffffffff1673ffffffffffffffffffffffffffffffffffffffff16815260200190815260200160002060009054906101000a900460ff16611600576040517f08c379a000000000000000000000000000000000000000000000000000000000815260040180806020018281038252601c8152602001807f4f6e6c7920616e20617070726f7665722063616e20646f20746869730000000081525060200191505060405180910390fd5b80600560008473ffffffffffffffffffffffffffffffffffffffff1673ffffffffffffffffffffffffffffffffffffffff168152602001908152602001600020908051906020019061165392919061190e565b508173ffffffffffffffffffffffffffffffffffffffff167fa1ff33539b543c185562d16ab9313703c605d470bbd8bd45f16b07a04529f938826040518080602001828103825283818151815260200191508051906020019080838360005b838110156116cd5780820151818401526020810190506116b2565b50505050905090810190601f1680156116fa5780820380516001836020036101000a031916815260200191505b509250505060405180910390a25050565b6000809054906101000a900473ffffffffffffffffffffffffffffffffffffffff1673ffffffffffffffffffffffffffffffffffffffff163373ffffffffffffffffffffffffffffffffffffffff16146117cd576040517f08c379a00000000000000000000000000000000000000000000000000000000081526004018080602001828103825260168152602001807f4f6e6c792061646d696e2063616e20646f20746869730000000000000000000081525060200191505060405180910390fd5b80600160008273ffffffffffffffffffffffffffffffffffffffff1673ffffffffffffffffffffffffffffffffffffffff16815260200190815260200160002060009054906101000a900460ff161561188e576040517f08c379a00000000000000000000000000000000000000000000000000000000081526004018080602001828103825260208152602001807f43616e6e6f74206164642061206475706c696361746520617070726f7665722e81525060200191505060405180910390fd5b60018060008473ffffffffffffffffffffffffffffffffffffffff1673ffffffffffffffffffffffffffffffffffffffff16815260200190815260200160002060006101000a81548160ff0219169083151502179055505050565b6000809054906101000a900473ffffffffffffffffffffffffffffffffffffffff1681565b828054600181600116156101000203166002900490600052602060002090601f016020900481019282601f1061194f57805160ff191683800117855561197d565b8280016001018555821561197d579182015b8281111561197c578251825591602001919060010190611961565b5b50905061198a919061198e565b5090565b6119b091905b808211156119ac576000816000905550600101611994565b5090565b9056fea2646970667358221220e6c35d14bb24d1919f9afdaf3f9466c1ceef0f4531f769b744ccd559e32a27c364736f6c63430006000033",
  "source": "pragma solidity ^0.6.0;\r\n\r\ncontract Fda {\r\n    address public admin;\r\n    mapping(address => bool) private approverList;\r\n    address[] public approvedDrugFormulationList;\r\n    address[] public approvedApiList;\r\n    mapping(address => uint256) apiPatentExpiryMapping;\r\n    mapping(address => string) approvedExcipientQuantityMapping;\r\n\r\n    constructor() public {\r\n        admin = msg.sender;\r\n    }\r\n\r\n    // Events\r\n\r\n    event DrugAPIApproved(address indexed drugApiAddress);\r\n    event DrugAPIRejected(\r\n        address indexed drugApiAddress,\r\n        string rejectionReason\r\n    );\r\n    event DrugExcipientApproved(\r\n        address indexed drugExcipientAddress,\r\n        string quantityMg\r\n    );\r\n    event DrugExcipientRejected(\r\n        address indexed drugExcipientAddress,\r\n        string rejectionReason\r\n    );\r\n    event DrugFormulationApproved(address indexed drugAddress);\r\n    event DrugFormulationRejected(\r\n        address indexed drugAddress,\r\n        string rejectionReason\r\n    );\r\n\r\n    // Modifiers\r\n\r\n    modifier onlyAdmin() {\r\n        require(msg.sender == admin, \"Only admin can do this\");\r\n        _;\r\n    }\r\n\r\n    modifier onlyApprover() {\r\n        require(approverList[msg.sender], \"Only an approver can do this\");\r\n        _;\r\n    }\r\n\r\n    modifier noDuplicateApprover(address _approverAddress) {\r\n        require(\r\n            !approverList[_approverAddress],\r\n            \"Cannot add a duplicate approver.\"\r\n        );\r\n        _;\r\n    }\r\n\r\n    // Functions\r\n\r\n    function addApprover(address _approverAddress)\r\n        public\r\n        onlyAdmin\r\n        noDuplicateApprover(_approverAddress)\r\n    {\r\n        approverList[_approverAddress] = true;\r\n    }\r\n\r\n    function removeApprover(address _approverAddress) public onlyAdmin {\r\n        approverList[_approverAddress] = false;\r\n    }\r\n\r\n    function changeAdmin(address _newAdminAddress) public onlyAdmin {\r\n        admin = _newAdminAddress;\r\n    }\r\n\r\n    function approveDrugFormulation(address _drugFormulationAddress)\r\n        public\r\n        onlyApprover\r\n    {\r\n        approvedDrugFormulationList.push(_drugFormulationAddress);\r\n        emit DrugFormulationApproved(_drugFormulationAddress);\r\n    }\r\n\r\n    function rejectDrugFormulation(\r\n        address _drugFormulationAddress,\r\n        string memory _rejectionReason\r\n    ) public onlyApprover {\r\n        emit DrugFormulationRejected(_drugFormulationAddress, _rejectionReason);\r\n    }\r\n\r\n    function approveDrugApi(address _drugApiAddress, uint256 _patentExpiry)\r\n        public\r\n        onlyApprover\r\n    {\r\n        approvedApiList.push(_drugApiAddress);\r\n        apiPatentExpiryMapping[_drugApiAddress] = _patentExpiry;\r\n        emit DrugAPIApproved(_drugApiAddress);\r\n    }\r\n\r\n    function getApiPatentExpiry(address _drugApiAddress)\r\n        public\r\n        view\r\n        returns (uint256)\r\n    {\r\n        return apiPatentExpiryMapping[_drugApiAddress];\r\n    }\r\n\r\n    function rejectDrugApi(\r\n        address _drugApiAddress,\r\n        string memory _rejectionReason\r\n    ) public onlyApprover {\r\n        emit DrugAPIRejected(_drugApiAddress, _rejectionReason);\r\n    }\r\n\r\n    function approveDrugExcipient(\r\n        address _drugExcipientAddress,\r\n        string memory quantityMg\r\n    ) public onlyApprover {\r\n        // TODO: Compare quantity before pushing (highest should be inserted)\r\n        approvedExcipientQuantityMapping[_drugExcipientAddress] = quantityMg;\r\n        emit DrugExcipientApproved(_drugExcipientAddress, quantityMg);\r\n    }\r\n\r\n    function rejectDrugExcipient(\r\n        address _drugExcipientAddress,\r\n        string memory _rejectionReason\r\n    ) public onlyApprover {\r\n        emit DrugExcipientRejected(_drugExcipientAddress, _rejectionReason);\r\n    }\r\n\r\n    function checkDrugFormulationApproval(address _drugFormulationAddress)\r\n        public\r\n        view\r\n        returns (bool)\r\n    {\r\n        for (\r\n            uint256 index = 0;\r\n            index < approvedDrugFormulationList.length;\r\n            index++\r\n        ) {\r\n            if (_drugFormulationAddress == approvedDrugFormulationList[index]) {\r\n                return true;\r\n            }\r\n        }\r\n        return false;\r\n    }\r\n\r\n    function checkApiApproval(address _apiAddress) public view returns (bool) {\r\n        for (uint256 index = 0; index < approvedApiList.length; index++) {\r\n            if (_apiAddress == approvedApiList[index]) {\r\n                return true;\r\n            }\r\n        }\r\n        return false;\r\n    }\r\n\r\n    function checkExcipientApproval(address _excipientAddress)\r\n        public\r\n        view\r\n        returns (string memory)\r\n    {\r\n        return approvedExcipientQuantityMapping[_excipientAddress];\r\n    }\r\n}\r\n",
  "sourcePath": "D:\\pharma-supply-chain\\backend\\contracts\\Fda.sol",
  "compiler": {
    "name": "solc",
    "version": "0.6.0+commit.26b70077.Emscripten.clang"
  },
  "schemaVersion": "3.4.11",
  "updatedAt": "2023-02-02T03:19:08.298Z",
  "networkType": "ethereum",
  "devdoc": {
    "methods": {}
  },
  "userdoc": {
    "methods": {}
  }
}