{
  "contractName": "Fda",
  "abi": [
    {
      "inputs": [],
      "stateMutability": "nonpayable",
      "type": "constructor"
    },
    {
      "anonymous": false,
      "inputs": [
        {
          "indexed": true,
          "internalType": "address",
          "name": "drugApiAddress",
          "type": "address"
        }
      ],
      "name": "DrugAPIApproved",
      "type": "event"
    },
    {
      "anonymous": false,
      "inputs": [
        {
          "indexed": true,
          "internalType": "address",
          "name": "drugApiAddress",
          "type": "address"
        }
      ],
      "name": "DrugAPIRejected",
      "type": "event"
    },
    {
      "anonymous": false,
      "inputs": [
        {
          "indexed": true,
          "internalType": "address",
          "name": "drugExcipientAddress",
          "type": "address"
        }
      ],
      "name": "DrugExcipientApproved",
      "type": "event"
    },
    {
      "anonymous": false,
      "inputs": [
        {
          "indexed": true,
          "internalType": "address",
          "name": "drugExcipientAddress",
          "type": "address"
        }
      ],
      "name": "DrugExcipientRejected",
      "type": "event"
    },
    {
      "anonymous": false,
      "inputs": [
        {
          "indexed": true,
          "internalType": "address",
          "name": "drugAddress",
          "type": "address"
        }
      ],
      "name": "DrugFormulationApproved",
      "type": "event"
    },
    {
      "anonymous": false,
      "inputs": [
        {
          "indexed": true,
          "internalType": "address",
          "name": "drugAddress",
          "type": "address"
        }
      ],
      "name": "DrugFormulationRejected",
      "type": "event"
    },
    {
      "inputs": [
        {
          "internalType": "uint256",
          "name": "",
          "type": "uint256"
        }
      ],
      "name": "approvedApiList",
      "outputs": [
        {
          "internalType": "address",
          "name": "",
          "type": "address"
        }
      ],
      "stateMutability": "view",
      "type": "function",
      "constant": true
    },
    {
      "inputs": [
        {
          "internalType": "uint256",
          "name": "",
          "type": "uint256"
        }
      ],
      "name": "approvedDrugFormulationList",
      "outputs": [
        {
          "internalType": "address",
          "name": "",
          "type": "address"
        }
      ],
      "stateMutability": "view",
      "type": "function",
      "constant": true
    },
    {
      "inputs": [
        {
          "internalType": "uint256",
          "name": "",
          "type": "uint256"
        }
      ],
      "name": "approvedExcipientList",
      "outputs": [
        {
          "internalType": "address",
          "name": "",
          "type": "address"
        }
      ],
      "stateMutability": "view",
      "type": "function",
      "constant": true
    },
    {
      "inputs": [
        {
          "internalType": "address",
          "name": "_approverAddress",
          "type": "address"
        }
      ],
      "name": "addApprover",
      "outputs": [],
      "stateMutability": "nonpayable",
      "type": "function"
    },
    {
      "inputs": [
        {
          "internalType": "address",
          "name": "_approverAddress",
          "type": "address"
        }
      ],
      "name": "removeApprover",
      "outputs": [],
      "stateMutability": "nonpayable",
      "type": "function"
    },
    {
      "inputs": [
        {
          "internalType": "address",
          "name": "_newAdminAddress",
          "type": "address"
        }
      ],
      "name": "changeAdmin",
      "outputs": [],
      "stateMutability": "nonpayable",
      "type": "function"
    },
    {
      "inputs": [
        {
          "internalType": "address",
          "name": "_drugFormulationAddress",
          "type": "address"
        }
      ],
      "name": "approveDrugFormulation",
      "outputs": [],
      "stateMutability": "nonpayable",
      "type": "function"
    },
    {
      "inputs": [
        {
          "internalType": "address",
          "name": "_drugFormulationAddress",
          "type": "address"
        }
      ],
      "name": "rejectDrugFormulation",
      "outputs": [],
      "stateMutability": "nonpayable",
      "type": "function"
    },
    {
      "inputs": [
        {
          "internalType": "address",
          "name": "_drugApiAddress",
          "type": "address"
        },
        {
          "internalType": "uint256",
          "name": "_patentExpiry",
          "type": "uint256"
        }
      ],
      "name": "approveDrugApi",
      "outputs": [],
      "stateMutability": "nonpayable",
      "type": "function"
    },
    {
      "inputs": [
        {
          "internalType": "address",
          "name": "_drugApiAddress",
          "type": "address"
        }
      ],
      "name": "getApiPatentExpiry",
      "outputs": [
        {
          "internalType": "uint256",
          "name": "",
          "type": "uint256"
        }
      ],
      "stateMutability": "view",
      "type": "function",
      "constant": true
    },
    {
      "inputs": [
        {
          "internalType": "address",
          "name": "_drugApiAddress",
          "type": "address"
        }
      ],
      "name": "rejectDrugApi",
      "outputs": [],
      "stateMutability": "nonpayable",
      "type": "function"
    },
    {
      "inputs": [
        {
          "internalType": "address",
          "name": "_drugExcipientAddress",
          "type": "address"
        }
      ],
      "name": "approveDrugExcipient",
      "outputs": [],
      "stateMutability": "nonpayable",
      "type": "function"
    },
    {
      "inputs": [
        {
          "internalType": "address",
          "name": "_drugExcipientAddress",
          "type": "address"
        }
      ],
      "name": "rejectDrugExcipient",
      "outputs": [],
      "stateMutability": "nonpayable",
      "type": "function"
    },
    {
      "inputs": [
        {
          "internalType": "address",
          "name": "_drugFormulationAddress",
          "type": "address"
        }
      ],
      "name": "checkDrugFormulationApproval",
      "outputs": [
        {
          "internalType": "bool",
          "name": "",
          "type": "bool"
        }
      ],
      "stateMutability": "view",
      "type": "function",
      "constant": true
    },
    {
      "inputs": [
        {
          "internalType": "address",
          "name": "_apiAddress",
          "type": "address"
        }
      ],
      "name": "checkApiApproval",
      "outputs": [
        {
          "internalType": "bool",
          "name": "",
          "type": "bool"
        }
      ],
      "stateMutability": "view",
      "type": "function",
      "constant": true
    },
    {
      "inputs": [
        {
          "internalType": "address",
          "name": "_excipientAddress",
          "type": "address"
        }
      ],
      "name": "checkExcipientApproval",
      "outputs": [
        {
          "internalType": "bool",
          "name": "",
          "type": "bool"
        }
      ],
      "stateMutability": "view",
      "type": "function",
      "constant": true
    }
  ],
  "bytecode": "0x608060405234801561001057600080fd5b50336000806101000a81548173ffffffffffffffffffffffffffffffffffffffff021916908373ffffffffffffffffffffffffffffffffffffffff160217905550611815806100606000396000f3fe608060405234801561001057600080fd5b50600436106101005760003560e01c80636cf4c88f116100975780638760249e116100665780638760249e146104d75780638f28397014610545578063a2a5747b14610589578063b646c194146105e557610100565b80636cf4c88f146103855780636d49338a146103c95780637ece2320146104375780638730dd521461047b57610100565b8063434aa82d116100d3578063434aa82d14610233578063437890c8146102775780634bd5e48f146102bb578063659c7a651461032957610100565b806322141a2f146101055780632ddefdae146101535780633cd8139d146101ab5780634253ff34146101ef575b600080fd5b6101516004803603604081101561011b57600080fd5b81019080803573ffffffffffffffffffffffffffffffffffffffff16906020019092919080359060200190929190505050610629565b005b6101956004803603602081101561016957600080fd5b81019080803573ffffffffffffffffffffffffffffffffffffffff169060200190929190505050610825565b6040518082815260200191505060405180910390f35b6101ed600480360360208110156101c157600080fd5b81019080803573ffffffffffffffffffffffffffffffffffffffff16906020019092919050505061086e565b005b6102316004803603602081101561020557600080fd5b81019080803573ffffffffffffffffffffffffffffffffffffffff169060200190929190505050610a25565b005b6102756004803603602081101561024957600080fd5b81019080803573ffffffffffffffffffffffffffffffffffffffff169060200190929190505050610bdc565b005b6102b96004803603602081101561028d57600080fd5b81019080803573ffffffffffffffffffffffffffffffffffffffff169060200190929190505050610d30565b005b6102e7600480360360208110156102d157600080fd5b8101908080359060200190929190505050610e84565b604051808273ffffffffffffffffffffffffffffffffffffffff1673ffffffffffffffffffffffffffffffffffffffff16815260200191505060405180910390f35b61036b6004803603602081101561033f57600080fd5b81019080803573ffffffffffffffffffffffffffffffffffffffff169060200190929190505050610ec0565b604051808215151515815260200191505060405180910390f35b6103c76004803603602081101561039b57600080fd5b81019080803573ffffffffffffffffffffffffffffffffffffffff169060200190929190505050610f62565b005b6103f5600480360360208110156103df57600080fd5b810190808035906020019092919050505061118b565b604051808273ffffffffffffffffffffffffffffffffffffffff1673ffffffffffffffffffffffffffffffffffffffff16815260200191505060405180910390f35b6104796004803603602081101561044d57600080fd5b81019080803573ffffffffffffffffffffffffffffffffffffffff1690602001909291905050506111c7565b005b6104bd6004803603602081101561049157600080fd5b81019080803573ffffffffffffffffffffffffffffffffffffffff16906020019092919050505061131b565b604051808215151515815260200191505060405180910390f35b610503600480360360208110156104ed57600080fd5b81019080803590602001909291905050506113bd565b604051808273ffffffffffffffffffffffffffffffffffffffff1673ffffffffffffffffffffffffffffffffffffffff16815260200191505060405180910390f35b6105876004803603602081101561055b57600080fd5b81019080803573ffffffffffffffffffffffffffffffffffffffff1690602001909291905050506113f9565b005b6105cb6004803603602081101561059f57600080fd5b81019080803573ffffffffffffffffffffffffffffffffffffffff1690602001909291905050506114fe565b604051808215151515815260200191505060405180910390f35b610627600480360360208110156105fb57600080fd5b81019080803573ffffffffffffffffffffffffffffffffffffffff1690602001909291905050506115a0565b005b600080905060008090505b6001805490508110156106c2576001818154811061064e57fe5b9060005260206000200160009054906101000a900473ffffffffffffffffffffffffffffffffffffffff1673ffffffffffffffffffffffffffffffffffffffff163373ffffffffffffffffffffffffffffffffffffffff1614156106b557600191506106c2565b8080600101915050610634565b5080610736576040517f08c379a000000000000000000000000000000000000000000000000000000000815260040180806020018281038252601c8152602001807f4f6e6c7920616e20617070726f7665722063616e20646f20746869730000000081525060200191505060405180910390fd5b6003839080600181540180825580915050600190039060005260206000200160009091909190916101000a81548173ffffffffffffffffffffffffffffffffffffffff021916908373ffffffffffffffffffffffffffffffffffffffff16021790555081600460008573ffffffffffffffffffffffffffffffffffffffff1673ffffffffffffffffffffffffffffffffffffffff168152602001908152602001600020819055508273ffffffffffffffffffffffffffffffffffffffff167f4d24e9e2c4c71e391fdd55a9b465a0cbb0000ead4d3163940332c24b65b2cd8560405160405180910390a2505050565b6000600460008373ffffffffffffffffffffffffffffffffffffffff1673ffffffffffffffffffffffffffffffffffffffff168152602001908152602001600020549050919050565b600080905060008090505b600180549050811015610907576001818154811061089357fe5b9060005260206000200160009054906101000a900473ffffffffffffffffffffffffffffffffffffffff1673ffffffffffffffffffffffffffffffffffffffff163373ffffffffffffffffffffffffffffffffffffffff1614156108fa5760019150610907565b8080600101915050610879565b508061097b576040517f08c379a000000000000000000000000000000000000000000000000000000000815260040180806020018281038252601c8152602001807f4f6e6c7920616e20617070726f7665722063616e20646f20746869730000000081525060200191505060405180910390fd5b6005829080600181540180825580915050600190039060005260206000200160009091909190916101000a81548173ffffffffffffffffffffffffffffffffffffffff021916908373ffffffffffffffffffffffffffffffffffffffff1602179055508173ffffffffffffffffffffffffffffffffffffffff167f06266f57cc2430227c904aa8301a2af0950e2deee5c8e6ad6a89ec9453cc617960405160405180910390a25050565b600080905060008090505b600180549050811015610abe5760018181548110610a4a57fe5b9060005260206000200160009054906101000a900473ffffffffffffffffffffffffffffffffffffffff1673ffffffffffffffffffffffffffffffffffffffff163373ffffffffffffffffffffffffffffffffffffffff161415610ab15760019150610abe565b8080600101915050610a30565b5080610b32576040517f08c379a000000000000000000000000000000000000000000000000000000000815260040180806020018281038252601c8152602001807f4f6e6c7920616e20617070726f7665722063616e20646f20746869730000000081525060200191505060405180910390fd5b6002829080600181540180825580915050600190039060005260206000200160009091909190916101000a81548173ffffffffffffffffffffffffffffffffffffffff021916908373ffffffffffffffffffffffffffffffffffffffff1602179055508173ffffffffffffffffffffffffffffffffffffffff167f7fea5b43f5ee453928913fc4f7c5aa6e1843d602ebe8532714a359c9d1a9f02c60405160405180910390a25050565b600080905060008090505b600180549050811015610c755760018181548110610c0157fe5b9060005260206000200160009054906101000a900473ffffffffffffffffffffffffffffffffffffffff1673ffffffffffffffffffffffffffffffffffffffff163373ffffffffffffffffffffffffffffffffffffffff161415610c685760019150610c75565b8080600101915050610be7565b5080610ce9576040517f08c379a000000000000000000000000000000000000000000000000000000000815260040180806020018281038252601c8152602001807f4f6e6c7920616e20617070726f7665722063616e20646f20746869730000000081525060200191505060405180910390fd5b8173ffffffffffffffffffffffffffffffffffffffff167f60105b1a4f1dcdd310a73b4510253c908e04f42ce2cb035bc288bb8975c42ded60405160405180910390a25050565b600080905060008090505b600180549050811015610dc95760018181548110610d5557fe5b9060005260206000200160009054906101000a900473ffffffffffffffffffffffffffffffffffffffff1673ffffffffffffffffffffffffffffffffffffffff163373ffffffffffffffffffffffffffffffffffffffff161415610dbc5760019150610dc9565b8080600101915050610d3b565b5080610e3d576040517f08c379a000000000000000000000000000000000000000000000000000000000815260040180806020018281038252601c8152602001807f4f6e6c7920616e20617070726f7665722063616e20646f20746869730000000081525060200191505060405180910390fd5b8173ffffffffffffffffffffffffffffffffffffffff167f2e3bc94b2cde7fcfd024fae2c83686ec4dff9ca175026e436ce8902e2319df2260405160405180910390a25050565b60028181548110610e9157fe5b906000526020600020016000915054906101000a900473ffffffffffffffffffffffffffffffffffffffff1681565b600080600090505b600580549050811015610f575760058181548110610ee257fe5b9060005260206000200160009054906101000a900473ffffffffffffffffffffffffffffffffffffffff1673ffffffffffffffffffffffffffffffffffffffff168373ffffffffffffffffffffffffffffffffffffffff161415610f4a576001915050610f5d565b8080600101915050610ec8565b50600090505b919050565b6000809054906101000a900473ffffffffffffffffffffffffffffffffffffffff1673ffffffffffffffffffffffffffffffffffffffff163373ffffffffffffffffffffffffffffffffffffffff1614611024576040517f08c379a00000000000000000000000000000000000000000000000000000000081526004018080602001828103825260168152602001807f4f6e6c792061646d696e2063616e20646f20746869730000000000000000000081525060200191505060405180910390fd5b60008090505b600180549050811015611187578173ffffffffffffffffffffffffffffffffffffffff166001828154811061105b57fe5b9060005260206000200160009054906101000a900473ffffffffffffffffffffffffffffffffffffffff1673ffffffffffffffffffffffffffffffffffffffff16141561117a57600180808054905003815481106110b557fe5b9060005260206000200160009054906101000a900473ffffffffffffffffffffffffffffffffffffffff16600182815481106110ed57fe5b9060005260206000200160006101000a81548173ffffffffffffffffffffffffffffffffffffffff021916908373ffffffffffffffffffffffffffffffffffffffff160217905550600180548061114057fe5b6001900381819060005260206000200160006101000a81549073ffffffffffffffffffffffffffffffffffffffff02191690559055611187565b808060010191505061102a565b5050565b6005818154811061119857fe5b906000526020600020016000915054906101000a900473ffffffffffffffffffffffffffffffffffffffff1681565b600080905060008090505b60018054905081101561126057600181815481106111ec57fe5b9060005260206000200160009054906101000a900473ffffffffffffffffffffffffffffffffffffffff1673ffffffffffffffffffffffffffffffffffffffff163373ffffffffffffffffffffffffffffffffffffffff1614156112535760019150611260565b80806001019150506111d2565b50806112d4576040517f08c379a000000000000000000000000000000000000000000000000000000000815260040180806020018281038252601c8152602001807f4f6e6c7920616e20617070726f7665722063616e20646f20746869730000000081525060200191505060405180910390fd5b8173ffffffffffffffffffffffffffffffffffffffff167f377ef8fa3a368889e44ef2d1e8f538cd2e19d8726975a530925e6001fa5fdd9d60405160405180910390a25050565b600080600090505b6002805490508110156113b2576002818154811061133d57fe5b9060005260206000200160009054906101000a900473ffffffffffffffffffffffffffffffffffffffff1673ffffffffffffffffffffffffffffffffffffffff168373ffffffffffffffffffffffffffffffffffffffff1614156113a55760019150506113b8565b8080600101915050611323565b50600090505b919050565b600381815481106113ca57fe5b906000526020600020016000915054906101000a900473ffffffffffffffffffffffffffffffffffffffff1681565b6000809054906101000a900473ffffffffffffffffffffffffffffffffffffffff1673ffffffffffffffffffffffffffffffffffffffff163373ffffffffffffffffffffffffffffffffffffffff16146114bb576040517f08c379a00000000000000000000000000000000000000000000000000000000081526004018080602001828103825260168152602001807f4f6e6c792061646d696e2063616e20646f20746869730000000000000000000081525060200191505060405180910390fd5b806000806101000a81548173ffffffffffffffffffffffffffffffffffffffff021916908373ffffffffffffffffffffffffffffffffffffffff16021790555050565b600080600090505b600380549050811015611595576003818154811061152057fe5b9060005260206000200160009054906101000a900473ffffffffffffffffffffffffffffffffffffffff1673ffffffffffffffffffffffffffffffffffffffff168373ffffffffffffffffffffffffffffffffffffffff16141561158857600191505061159b565b8080600101915050611506565b50600090505b919050565b6000809054906101000a900473ffffffffffffffffffffffffffffffffffffffff1673ffffffffffffffffffffffffffffffffffffffff163373ffffffffffffffffffffffffffffffffffffffff1614611662576040517f08c379a00000000000000000000000000000000000000000000000000000000081526004018080602001828103825260168152602001807f4f6e6c792061646d696e2063616e20646f20746869730000000000000000000081525060200191505060405180910390fd5b80600080905060008090505b6001805490508110156116fc578273ffffffffffffffffffffffffffffffffffffffff166001828154811061169f57fe5b9060005260206000200160009054906101000a900473ffffffffffffffffffffffffffffffffffffffff1673ffffffffffffffffffffffffffffffffffffffff1614156116ef57600191506116fc565b808060010191505061166e565b506000151581151514611777576040517f08c379a00000000000000000000000000000000000000000000000000000000081526004018080602001828103825260208152602001807f43616e6e6f74206164642061206475706c696361746520617070726f7665722e81525060200191505060405180910390fd5b6001839080600181540180825580915050600190039060005260206000200160009091909190916101000a81548173ffffffffffffffffffffffffffffffffffffffff021916908373ffffffffffffffffffffffffffffffffffffffff16021790555050505056fea2646970667358221220a0e50ef569f34df29ad440d0aa0357b7825e179b47a41005bae5e7273cca8f1464736f6c63430006000033",
  "source": "pragma solidity ^0.6.0;\r\n\r\ncontract Fda {\r\n    address private admin;\r\n    address[] private approverList;\r\n    address[] public approvedDrugFormulationList;\r\n    address[] public approvedApiList;\r\n    mapping(address => uint256) apiPatentExpiryMapping;\r\n    address[] public approvedExcipientList;\r\n\r\n    constructor() public {\r\n        admin = msg.sender;\r\n    }\r\n\r\n    // Events\r\n\r\n    event DrugAPIApproved(address indexed drugApiAddress);\r\n    event DrugAPIRejected(address indexed drugApiAddress);\r\n    event DrugExcipientApproved(address indexed drugExcipientAddress);\r\n    event DrugExcipientRejected(address indexed drugExcipientAddress);\r\n    event DrugFormulationApproved(address indexed drugAddress);\r\n    event DrugFormulationRejected(address indexed drugAddress);\r\n\r\n    // Modifiers\r\n\r\n    modifier onlyAdmin() {\r\n        require(msg.sender == admin, \"Only admin can do this\");\r\n        _;\r\n    }\r\n\r\n    modifier onlyApprover() {\r\n        bool isUserAnApprover = false;\r\n        for (uint256 index = 0; index < approverList.length; index++) {\r\n            if (msg.sender == approverList[index]) {\r\n                isUserAnApprover = true;\r\n                break;\r\n            }\r\n        }\r\n        require(isUserAnApprover, \"Only an approver can do this\");\r\n        _;\r\n    }\r\n\r\n    modifier noDuplicateApprover(address _approverAddress) {\r\n        bool isDuplicate = false;\r\n        for (uint256 index = 0; index < approverList.length; index++) {\r\n            if (approverList[index] == _approverAddress) {\r\n                isDuplicate = true;\r\n                break;\r\n            }\r\n        }\r\n        require(isDuplicate == false, \"Cannot add a duplicate approver.\");\r\n        _;\r\n    }\r\n\r\n    // Functions\r\n\r\n    function addApprover(address _approverAddress)\r\n        public\r\n        onlyAdmin\r\n        noDuplicateApprover(_approverAddress)\r\n    {\r\n        approverList.push(_approverAddress);\r\n    }\r\n\r\n    function removeApprover(address _approverAddress) public onlyAdmin {\r\n        for (uint256 index = 0; index < approverList.length; index++) {\r\n            if (approverList[index] == _approverAddress) {\r\n                approverList[index] = approverList[approverList.length - 1];\r\n                approverList.pop();\r\n                break;\r\n            }\r\n        }\r\n    }\r\n\r\n    function changeAdmin(address _newAdminAddress) public onlyAdmin {\r\n        admin = _newAdminAddress;\r\n    }\r\n\r\n    function approveDrugFormulation(address _drugFormulationAddress)\r\n        public\r\n        onlyApprover\r\n    {\r\n        approvedDrugFormulationList.push(_drugFormulationAddress);\r\n        emit DrugFormulationApproved(_drugFormulationAddress);\r\n    }\r\n\r\n    function rejectDrugFormulation(address _drugFormulationAddress)\r\n        public\r\n        onlyApprover\r\n    {\r\n        emit DrugFormulationRejected(_drugFormulationAddress);\r\n    }\r\n\r\n    function approveDrugApi(address _drugApiAddress, uint256 _patentExpiry)\r\n        public\r\n        onlyApprover\r\n    {\r\n        approvedApiList.push(_drugApiAddress);\r\n        apiPatentExpiryMapping[_drugApiAddress] = _patentExpiry;\r\n        emit DrugAPIApproved(_drugApiAddress);\r\n    }\r\n\r\n    function getApiPatentExpiry(address _drugApiAddress)\r\n        public\r\n        view\r\n        returns (uint256)\r\n    {\r\n        return apiPatentExpiryMapping[_drugApiAddress];\r\n    }\r\n\r\n    function rejectDrugApi(address _drugApiAddress) public onlyApprover {\r\n        emit DrugAPIRejected(_drugApiAddress);\r\n    }\r\n\r\n    function approveDrugExcipient(address _drugExcipientAddress)\r\n        public\r\n        onlyApprover\r\n    {\r\n        approvedExcipientList.push(_drugExcipientAddress);\r\n        emit DrugExcipientApproved(_drugExcipientAddress);\r\n    }\r\n\r\n    function rejectDrugExcipient(address _drugExcipientAddress)\r\n        public\r\n        onlyApprover\r\n    {\r\n        emit DrugExcipientRejected(_drugExcipientAddress);\r\n    }\r\n\r\n    function checkDrugFormulationApproval(address _drugFormulationAddress)\r\n        public\r\n        view\r\n        returns (bool)\r\n    {\r\n        for (\r\n            uint256 index = 0;\r\n            index < approvedDrugFormulationList.length;\r\n            index++\r\n        ) {\r\n            if (_drugFormulationAddress == approvedDrugFormulationList[index]) {\r\n                return true;\r\n            }\r\n        }\r\n        return false;\r\n    }\r\n\r\n    function checkApiApproval(address _apiAddress) public view returns (bool) {\r\n        for (uint256 index = 0; index < approvedApiList.length; index++) {\r\n            if (_apiAddress == approvedApiList[index]) {\r\n                return true;\r\n            }\r\n        }\r\n        return false;\r\n    }\r\n\r\n    function checkExcipientApproval(address _excipientAddress)\r\n        public\r\n        view\r\n        returns (bool)\r\n    {\r\n        for (uint256 index = 0; index < approvedExcipientList.length; index++) {\r\n            if (_excipientAddress == approvedExcipientList[index]) {\r\n                return true;\r\n            }\r\n        }\r\n        return false;\r\n    }\r\n}\r\n",
  "sourcePath": "D:\\pharma-supply-chain\\backend\\contracts\\Fda.sol",
  "compiler": {
    "name": "solc",
    "version": "0.6.0+commit.26b70077.Emscripten.clang"
  },
  "schemaVersion": "3.4.11",
  "updatedAt": "2023-01-26T07:19:15.793Z",
  "networkType": "ethereum",
  "devdoc": {
    "methods": {}
  },
  "userdoc": {
    "methods": {}
  }
}