{
  "contractName": "IngredientLot",
  "abi": [
    {
      "inputs": [],
      "name": "manufacturerId",
      "outputs": [
        {
          "internalType": "address",
          "name": "",
          "type": "address"
        }
      ],
      "stateMutability": "view",
      "type": "function"
    },
    {
      "inputs": [],
      "name": "price",
      "outputs": [
        {
          "internalType": "uint256",
          "name": "",
          "type": "uint256"
        }
      ],
      "stateMutability": "view",
      "type": "function"
    },
    {
      "inputs": [],
      "name": "quantity",
      "outputs": [
        {
          "internalType": "uint256",
          "name": "",
          "type": "uint256"
        }
      ],
      "stateMutability": "view",
      "type": "function"
    },
    {
      "inputs": [
        {
          "internalType": "uint256",
          "name": "",
          "type": "uint256"
        }
      ],
      "name": "temperatureListings",
      "outputs": [
        {
          "internalType": "uint16",
          "name": "",
          "type": "uint16"
        }
      ],
      "stateMutability": "view",
      "type": "function"
    }
  ],
  "bytecode": "0x608060405234801561001057600080fd5b506101bd806100206000396000f3fe608060405234801561001057600080fd5b506004361061004c5760003560e01c806317fc45e2146100515780637938100b1461006f578063a035b1fe146100b9578063d7da832c146100d7575b600080fd5b610059610121565b6040518082815260200191505060405180910390f35b61009b6004803603602081101561008557600080fd5b8101908080359060200190929190505050610127565b604051808261ffff1661ffff16815260200191505060405180910390f35b6100c161015c565b6040518082815260200191505060405180910390f35b6100df610162565b604051808273ffffffffffffffffffffffffffffffffffffffff1673ffffffffffffffffffffffffffffffffffffffff16815260200191505060405180910390f35b60015481565b6003818154811061013457fe5b9060005260206000209060109182820401919006600202915054906101000a900461ffff1681565b60025481565b6000809054906101000a900473ffffffffffffffffffffffffffffffffffffffff168156fea26469706673582212202d1fb2c8140662c56fd98d8138479454c7c3aaaab4e622116e0ee349d3ef1e7b64736f6c63430006000033",
  "source": "pragma solidity ^0.6.0;\r\n\r\ncontract IngredientLot {\r\n    address public manufacturerId;\r\n    uint256 public quantity;\r\n    uint256 public price;\r\n    uint16[] public temperatureListings;\r\n}\r\n",
  "sourcePath": "D:\\pharma-supply-chain\\backend\\contracts\\IngredientLot.sol",
  "compiler": {
    "name": "solc",
    "version": "0.6.0+commit.26b70077.Emscripten.clang"
  },
  "schemaVersion": "3.4.11",
  "updatedAt": "2023-02-02T03:18:46.641Z",
  "devdoc": {
    "methods": {}
  },
  "userdoc": {
    "methods": {}
  }
}